{
  "_format": "hh3-artifact-1",
  "contractName": "ThematicNFT",
  "sourceName": "contracts/ThematicNFT.sol",
  "abi": [
    {
      "inputs": [
        {
          "internalType": "address",
          "name": "initialAccount",
          "type": "address"
        },
        {
          "internalType": "uint256",
          "name": "_basePrice",
          "type": "uint256"
        },
        {
          "internalType": "uint256[]",
          "name": "tokenIds",
          "type": "uint256[]"
        },
        {
          "internalType": "string[]",
          "name": "uris",
          "type": "string[]"
        },
        {
          "internalType": "uint256[]",
          "name": "rarities",
          "type": "uint256[]"
        }
      ],
      "stateMutability": "nonpayable",
      "type": "constructor"
    },
    {
      "inputs": [
        {
          "internalType": "address",
          "name": "sender",
          "type": "address"
        },
        {
          "internalType": "uint256",
          "name": "tokenId",
          "type": "uint256"
        },
        {
          "internalType": "address",
          "name": "owner",
          "type": "address"
        }
      ],
      "name": "ERC721IncorrectOwner",
      "type": "error"
    },
    {
      "inputs": [
        {
          "internalType": "address",
          "name": "operator",
          "type": "address"
        },
        {
          "internalType": "uint256",
          "name": "tokenId",
          "type": "uint256"
        }
      ],
      "name": "ERC721InsufficientApproval",
      "type": "error"
    },
    {
      "inputs": [
        {
          "internalType": "address",
          "name": "approver",
          "type": "address"
        }
      ],
      "name": "ERC721InvalidApprover",
      "type": "error"
    },
    {
      "inputs": [
        {
          "internalType": "address",
          "name": "operator",
          "type": "address"
        }
      ],
      "name": "ERC721InvalidOperator",
      "type": "error"
    },
    {
      "inputs": [
        {
          "internalType": "address",
          "name": "owner",
          "type": "address"
        }
      ],
      "name": "ERC721InvalidOwner",
      "type": "error"
    },
    {
      "inputs": [
        {
          "internalType": "address",
          "name": "receiver",
          "type": "address"
        }
      ],
      "name": "ERC721InvalidReceiver",
      "type": "error"
    },
    {
      "inputs": [
        {
          "internalType": "address",
          "name": "sender",
          "type": "address"
        }
      ],
      "name": "ERC721InvalidSender",
      "type": "error"
    },
    {
      "inputs": [
        {
          "internalType": "uint256",
          "name": "tokenId",
          "type": "uint256"
        }
      ],
      "name": "ERC721NonexistentToken",
      "type": "error"
    },
    {
      "inputs": [
        {
          "internalType": "address",
          "name": "owner",
          "type": "address"
        }
      ],
      "name": "OwnableInvalidOwner",
      "type": "error"
    },
    {
      "inputs": [
        {
          "internalType": "address",
          "name": "account",
          "type": "address"
        }
      ],
      "name": "OwnableUnauthorizedAccount",
      "type": "error"
    },
    {
      "inputs": [],
      "name": "ReentrancyGuardReentrantCall",
      "type": "error"
    },
    {
      "anonymous": false,
      "inputs": [
        {
          "indexed": true,
          "internalType": "address",
          "name": "owner",
          "type": "address"
        },
        {
          "indexed": true,
          "internalType": "address",
          "name": "approved",
          "type": "address"
        },
        {
          "indexed": true,
          "internalType": "uint256",
          "name": "tokenId",
          "type": "uint256"
        }
      ],
      "name": "Approval",
      "type": "event"
    },
    {
      "anonymous": false,
      "inputs": [
        {
          "indexed": true,
          "internalType": "address",
          "name": "owner",
          "type": "address"
        },
        {
          "indexed": true,
          "internalType": "address",
          "name": "operator",
          "type": "address"
        },
        {
          "indexed": false,
          "internalType": "bool",
          "name": "approved",
          "type": "bool"
        }
      ],
      "name": "ApprovalForAll",
      "type": "event"
    },
    {
      "anonymous": false,
      "inputs": [
        {
          "indexed": false,
          "internalType": "uint256",
          "name": "oldPrice",
          "type": "uint256"
        },
        {
          "indexed": false,
          "internalType": "uint256",
          "name": "newPrice",
          "type": "uint256"
        }
      ],
      "name": "BasePriceUpdated",
      "type": "event"
    },
    {
      "anonymous": false,
      "inputs": [
        {
          "indexed": false,
          "internalType": "uint256",
          "name": "_fromTokenId",
          "type": "uint256"
        },
        {
          "indexed": false,
          "internalType": "uint256",
          "name": "_toTokenId",
          "type": "uint256"
        }
      ],
      "name": "BatchMetadataUpdate",
      "type": "event"
    },
    {
      "anonymous": false,
      "inputs": [
        {
          "indexed": false,
          "internalType": "uint256",
          "name": "_tokenId",
          "type": "uint256"
        }
      ],
      "name": "MetadataUpdate",
      "type": "event"
    },
    {
      "anonymous": false,
      "inputs": [
        {
          "indexed": true,
          "internalType": "address",
          "name": "buyer",
          "type": "address"
        },
        {
          "indexed": true,
          "internalType": "uint256",
          "name": "tokenId",
          "type": "uint256"
        },
        {
          "indexed": false,
          "internalType": "uint256",
          "name": "price",
          "type": "uint256"
        }
      ],
      "name": "NFTMinted",
      "type": "event"
    },
    {
      "anonymous": false,
      "inputs": [
        {
          "indexed": true,
          "internalType": "address",
          "name": "previousOwner",
          "type": "address"
        },
        {
          "indexed": true,
          "internalType": "address",
          "name": "newOwner",
          "type": "address"
        }
      ],
      "name": "OwnershipTransferred",
      "type": "event"
    },
    {
      "anonymous": false,
      "inputs": [
        {
          "indexed": true,
          "internalType": "address",
          "name": "from",
          "type": "address"
        },
        {
          "indexed": true,
          "internalType": "address",
          "name": "to",
          "type": "address"
        },
        {
          "indexed": true,
          "internalType": "uint256",
          "name": "tokenId",
          "type": "uint256"
        }
      ],
      "name": "Transfer",
      "type": "event"
    },
    {
      "stateMutability": "payable",
      "type": "fallback"
    },
    {
      "inputs": [
        {
          "internalType": "uint256",
          "name": "",
          "type": "uint256"
        }
      ],
      "name": "_allTokenIds",
      "outputs": [
        {
          "internalType": "uint256",
          "name": "",
          "type": "uint256"
        }
      ],
      "stateMutability": "view",
      "type": "function"
    },
    {
      "inputs": [
        {
          "internalType": "address",
          "name": "to",
          "type": "address"
        },
        {
          "internalType": "uint256",
          "name": "tokenId",
          "type": "uint256"
        }
      ],
      "name": "approve",
      "outputs": [],
      "stateMutability": "nonpayable",
      "type": "function"
    },
    {
      "inputs": [
        {
          "internalType": "address",
          "name": "owner",
          "type": "address"
        }
      ],
      "name": "balanceOf",
      "outputs": [
        {
          "internalType": "uint256",
          "name": "",
          "type": "uint256"
        }
      ],
      "stateMutability": "view",
      "type": "function"
    },
    {
      "inputs": [],
      "name": "basePrice",
      "outputs": [
        {
          "internalType": "uint256",
          "name": "",
          "type": "uint256"
        }
      ],
      "stateMutability": "view",
      "type": "function"
    },
    {
      "inputs": [],
      "name": "getAllTokensInfo",
      "outputs": [
        {
          "internalType": "uint256[]",
          "name": "tokenIds",
          "type": "uint256[]"
        },
        {
          "internalType": "string[]",
          "name": "uris",
          "type": "string[]"
        },
        {
          "internalType": "uint256[]",
          "name": "rarities",
          "type": "uint256[]"
        },
        {
          "internalType": "uint256[]",
          "name": "prices",
          "type": "uint256[]"
        },
        {
          "internalType": "bool[]",
          "name": "mintedStatuses",
          "type": "bool[]"
        }
      ],
      "stateMutability": "view",
      "type": "function"
    },
    {
      "inputs": [
        {
          "internalType": "uint256",
          "name": "tokenId",
          "type": "uint256"
        }
      ],
      "name": "getApproved",
      "outputs": [
        {
          "internalType": "address",
          "name": "",
          "type": "address"
        }
      ],
      "stateMutability": "view",
      "type": "function"
    },
    {
      "inputs": [
        {
          "internalType": "address",
          "name": "owner",
          "type": "address"
        },
        {
          "internalType": "address",
          "name": "operator",
          "type": "address"
        }
      ],
      "name": "isApprovedForAll",
      "outputs": [
        {
          "internalType": "bool",
          "name": "",
          "type": "bool"
        }
      ],
      "stateMutability": "view",
      "type": "function"
    },
    {
      "inputs": [
        {
          "internalType": "uint256",
          "name": "tokenId",
          "type": "uint256"
        }
      ],
      "name": "mintNFT",
      "outputs": [
        {
          "internalType": "uint256",
          "name": "",
          "type": "uint256"
        }
      ],
      "stateMutability": "payable",
      "type": "function"
    },
    {
      "inputs": [
        {
          "internalType": "uint256",
          "name": "",
          "type": "uint256"
        }
      ],
      "name": "minted",
      "outputs": [
        {
          "internalType": "bool",
          "name": "",
          "type": "bool"
        }
      ],
      "stateMutability": "view",
      "type": "function"
    },
    {
      "inputs": [],
      "name": "name",
      "outputs": [
        {
          "internalType": "string",
          "name": "",
          "type": "string"
        }
      ],
      "stateMutability": "view",
      "type": "function"
    },
    {
      "inputs": [],
      "name": "owner",
      "outputs": [
        {
          "internalType": "address",
          "name": "",
          "type": "address"
        }
      ],
      "stateMutability": "view",
      "type": "function"
    },
    {
      "inputs": [
        {
          "internalType": "uint256",
          "name": "tokenId",
          "type": "uint256"
        }
      ],
      "name": "ownerOf",
      "outputs": [
        {
          "internalType": "address",
          "name": "",
          "type": "address"
        }
      ],
      "stateMutability": "view",
      "type": "function"
    },
    {
      "inputs": [
        {
          "internalType": "uint256",
          "name": "",
          "type": "uint256"
        }
      ],
      "name": "rarityMap",
      "outputs": [
        {
          "internalType": "uint256",
          "name": "",
          "type": "uint256"
        }
      ],
      "stateMutability": "view",
      "type": "function"
    },
    {
      "inputs": [],
      "name": "renounceOwnership",
      "outputs": [],
      "stateMutability": "nonpayable",
      "type": "function"
    },
    {
      "inputs": [
        {
          "internalType": "address",
          "name": "from",
          "type": "address"
        },
        {
          "internalType": "address",
          "name": "to",
          "type": "address"
        },
        {
          "internalType": "uint256",
          "name": "tokenId",
          "type": "uint256"
        }
      ],
      "name": "safeTransferFrom",
      "outputs": [],
      "stateMutability": "nonpayable",
      "type": "function"
    },
    {
      "inputs": [
        {
          "internalType": "address",
          "name": "from",
          "type": "address"
        },
        {
          "internalType": "address",
          "name": "to",
          "type": "address"
        },
        {
          "internalType": "uint256",
          "name": "tokenId",
          "type": "uint256"
        },
        {
          "internalType": "bytes",
          "name": "data",
          "type": "bytes"
        }
      ],
      "name": "safeTransferFrom",
      "outputs": [],
      "stateMutability": "nonpayable",
      "type": "function"
    },
    {
      "inputs": [
        {
          "internalType": "address",
          "name": "operator",
          "type": "address"
        },
        {
          "internalType": "bool",
          "name": "approved",
          "type": "bool"
        }
      ],
      "name": "setApprovalForAll",
      "outputs": [],
      "stateMutability": "nonpayable",
      "type": "function"
    },
    {
      "inputs": [
        {
          "internalType": "uint256",
          "name": "newBasePrice",
          "type": "uint256"
        }
      ],
      "name": "setBasePrice",
      "outputs": [],
      "stateMutability": "nonpayable",
      "type": "function"
    },
    {
      "inputs": [
        {
          "internalType": "bytes4",
          "name": "interfaceId",
          "type": "bytes4"
        }
      ],
      "name": "supportsInterface",
      "outputs": [
        {
          "internalType": "bool",
          "name": "",
          "type": "bool"
        }
      ],
      "stateMutability": "view",
      "type": "function"
    },
    {
      "inputs": [],
      "name": "symbol",
      "outputs": [
        {
          "internalType": "string",
          "name": "",
          "type": "string"
        }
      ],
      "stateMutability": "view",
      "type": "function"
    },
    {
      "inputs": [
        {
          "internalType": "uint256",
          "name": "",
          "type": "uint256"
        }
      ],
      "name": "tokenExists",
      "outputs": [
        {
          "internalType": "bool",
          "name": "",
          "type": "bool"
        }
      ],
      "stateMutability": "view",
      "type": "function"
    },
    {
      "inputs": [
        {
          "internalType": "uint256",
          "name": "tokenId",
          "type": "uint256"
        }
      ],
      "name": "tokenURI",
      "outputs": [
        {
          "internalType": "string",
          "name": "",
          "type": "string"
        }
      ],
      "stateMutability": "view",
      "type": "function"
    },
    {
      "inputs": [],
      "name": "totalMinted",
      "outputs": [
        {
          "internalType": "uint256",
          "name": "",
          "type": "uint256"
        }
      ],
      "stateMutability": "view",
      "type": "function"
    },
    {
      "inputs": [
        {
          "internalType": "address",
          "name": "from",
          "type": "address"
        },
        {
          "internalType": "address",
          "name": "to",
          "type": "address"
        },
        {
          "internalType": "uint256",
          "name": "tokenId",
          "type": "uint256"
        }
      ],
      "name": "transferFrom",
      "outputs": [],
      "stateMutability": "nonpayable",
      "type": "function"
    },
    {
      "inputs": [
        {
          "internalType": "address",
          "name": "newOwner",
          "type": "address"
        }
      ],
      "name": "transferOwnership",
      "outputs": [],
      "stateMutability": "nonpayable",
      "type": "function"
    },
    {
      "inputs": [],
      "name": "withdraw",
      "outputs": [],
      "stateMutability": "nonpayable",
      "type": "function"
    },
    {
      "stateMutability": "payable",
      "type": "receive"
    }
  ],
  "bytecode": "0x608060405234801561000f575f5ffd5b506040516128ca3803806128ca83398101604081905261002e916106eb565b846040518060400160405280600b81526020016a151a195b585d1a58d3919560aa1b815250604051806040016040528060048152602001631513919560e21b815250815f908161007e9190610826565b50600161008b8282610826565b5050506001600160a01b0381166100bc57604051631e4fbdf760e01b81525f60048201526024015b60405180910390fd5b6100c581610256565b5060016008556001600160a01b0385166101215760405162461bcd60e51b815260206004820152601c60248201527f4f776e65722063616e6e6f74206265207a65726f20616464726573730000000060448201526064016100b3565b5f841161017a5760405162461bcd60e51b815260206004820152602160248201527f42617365207072696365206d7573742062652067726561746572207468616e206044820152600360fc1b60648201526084016100b3565b5f8351116101ca5760405162461bcd60e51b815260206004820152601c60248201527f4d7573742068617665206174206c65617374206f6e6520746f6b656e0000000060448201526064016100b3565b815183511480156101dc575080518351145b6102285760405162461bcd60e51b815260206004820152601a60248201527f417272617973206d7573742062652073616d65206c656e67746800000000000060448201526064016100b3565b6009849055825161024090600b9060208601906104e2565b5061024c8383836102a7565b50505050506108f4565b600780546001600160a01b038381166001600160a01b0319831681179093556040519116919082907f8be0079c531659141344cd1fd0a4f28419497f9722a3daafe3b4186f6b6457e0905f90a35050565b5f5b83518110156104dc57600c5f8583815181106102c7576102c76108e0565b60209081029190910181015182528101919091526040015f205460ff16156103265760405162461bcd60e51b8152602060048201526012602482015271111d5c1b1a58d85d19481d1bdad95b88125160721b60448201526064016100b3565b5f838281518110610339576103396108e0565b6020026020010151511161038f5760405162461bcd60e51b815260206004820152601360248201527f5552492063616e6e6f7420626520656d7074790000000000000000000000000060448201526064016100b3565b60648282815181106103a3576103a36108e0565b602002602001015111156103f95760405162461bcd60e51b815260206004820152601f60248201527f526172697479206d757374206265206265747765656e203020616e642031300060448201526064016100b3565b6001600c5f868481518110610410576104106108e0565b602002602001015181526020019081526020015f205f6101000a81548160ff02191690831515021790555081818151811061044d5761044d6108e0565b6020026020010151600e5f86848151811061046a5761046a6108e0565b602002602001015181526020019081526020015f2081905550828181518110610495576104956108e0565b6020026020010151600f5f8684815181106104b2576104b26108e0565b602002602001015181526020019081526020015f2090816104d39190610826565b506001016102a9565b50505050565b828054828255905f5260205f2090810192821561051b579160200282015b8281111561051b578251825591602001919060010190610500565b5061052792915061052b565b5090565b5b80821115610527575f815560010161052c565b634e487b7160e01b5f52604160045260245ffd5b604051601f8201601f191681016001600160401b038111828210171561057b5761057b61053f565b604052919050565b5f6001600160401b0382111561059b5761059b61053f565b5060051b60200190565b5f82601f8301126105b4575f5ffd5b81516105c76105c282610583565b610553565b8082825260208201915060208360051b8601019250858311156105e8575f5ffd5b602085015b838110156106055780518352602092830192016105ed565b5095945050505050565b5f82601f83011261061e575f5ffd5b815161062c6105c282610583565b8082825260208201915060208360051b86010192508583111561064d575f5ffd5b602085015b838110156106055780516001600160401b0381111561066f575f5ffd5b8601603f8101881361067f575f5ffd5b60208101516001600160401b0381111561069b5761069b61053f565b6106ae601f8201601f1916602001610553565b8181526040838301018a10156106c2575f5ffd5b8160408401602083015e5f60208383010152808652505050602083019250602081019050610652565b5f5f5f5f5f60a086880312156106ff575f5ffd5b85516001600160a01b0381168114610715575f5ffd5b6020870151604088015191965094506001600160401b03811115610737575f5ffd5b610743888289016105a5565b606088015190945090506001600160401b03811115610760575f5ffd5b61076c8882890161060f565b608088015190935090506001600160401b03811115610789575f5ffd5b610795888289016105a5565b9150509295509295909350565b600181811c908216806107b657607f821691505b6020821081036107d457634e487b7160e01b5f52602260045260245ffd5b50919050565b601f82111561082157805f5260205f20601f840160051c810160208510156107ff5750805b601f840160051c820191505b8181101561081e575f815560010161080b565b50505b505050565b81516001600160401b0381111561083f5761083f61053f565b6108538161084d84546107a2565b846107da565b6020601f821160018114610885575f831561086e5750848201515b5f19600385901b1c1916600184901b17845561081e565b5f84815260208120601f198516915b828110156108b45787850151825560209485019460019092019101610894565b50848210156108d157868401515f19600387901b60f8161c191681555b50505050600190811b01905550565b634e487b7160e01b5f52603260045260245ffd5b611fc9806109015f395ff3fe608060405260043610610183575f3560e01c80638da5cb5b116100d0578063a2309ff811610089578063c87b56dd11610063578063c87b56dd146104f3578063de4b326214610512578063e985e9c514610531578063f2fde38b14610550576101d5565b8063a2309ff8146104aa578063b88d4fde146104bf578063c7876ea4146104de576101d5565b80638da5cb5b14610403578063926427441461042057806395d89b41146104335780639a24a25b146104475780639a707f901461046c578063a22cb4651461048b576101d5565b80633ccfd60b1161013d5780636352211e116101175780636352211e1461038357806370a08231146103a2578063715018a6146103c15780637dc0bf3f146103d5576101d5565b80633ccfd60b1461031757806342842e0e1461032b5780635f41ddbe1461034a576101d5565b8062923f9e1461021d57806301ffc9a71461026057806306fdde031461027f578063081812fc146102a0578063095ea7b3146102d757806323b872dd146102f8576101d5565b366101d55760405162461bcd60e51b815260206004820152601d60248201527f557365206d696e744e465428746f6b656e4964292066756e6374696f6e00000060448201526064015b60405180910390fd5b60405162461bcd60e51b815260206004820152601d60248201527f557365206d696e744e465428746f6b656e4964292066756e6374696f6e00000060448201526064016101cc565b348015610228575f5ffd5b5061024b6102373660046119ad565b600c6020525f908152604090205460ff1681565b60405190151581526020015b60405180910390f35b34801561026b575f5ffd5b5061024b61027a3660046119d9565b61056f565b34801561028a575f5ffd5b50610293610599565b6040516102579190611a22565b3480156102ab575f5ffd5b506102bf6102ba3660046119ad565b610628565b6040516001600160a01b039091168152602001610257565b3480156102e2575f5ffd5b506102f66102f1366004611a4a565b61064f565b005b348015610303575f5ffd5b506102f6610312366004611a72565b61065e565b348015610322575f5ffd5b506102f66106e7565b348015610336575f5ffd5b506102f6610345366004611a72565b6107ee565b348015610355575f5ffd5b506103756103643660046119ad565b600e6020525f908152604090205481565b604051908152602001610257565b34801561038e575f5ffd5b506102bf61039d3660046119ad565b61080d565b3480156103ad575f5ffd5b506103756103bc366004611aac565b610817565b3480156103cc575f5ffd5b506102f661085c565b3480156103e0575f5ffd5b5061024b6103ef3660046119ad565b600d6020525f908152604090205460ff1681565b34801561040e575f5ffd5b506007546001600160a01b03166102bf565b61037561042e3660046119ad565b61086d565b34801561043e575f5ffd5b50610293610ba5565b348015610452575f5ffd5b5061045b610bb4565b604051610257959493929190611b31565b348015610477575f5ffd5b506103756104863660046119ad565b610ed7565b348015610496575f5ffd5b506102f66104a5366004611be3565b610ef6565b3480156104b5575f5ffd5b50610375600a5481565b3480156104ca575f5ffd5b506102f66104d9366004611c30565b610f01565b3480156104e9575f5ffd5b5061037560095481565b3480156104fe575f5ffd5b5061029361050d3660046119ad565b610f19565b34801561051d575f5ffd5b506102f661052c3660046119ad565b611024565b34801561053c575f5ffd5b5061024b61054b366004611d0d565b611072565b34801561055b575f5ffd5b506102f661056a366004611aac565b61109f565b5f6001600160e01b03198216632483248360e11b14806105935750610593826110dc565b92915050565b60605f80546105a790611d3e565b80601f01602080910402602001604051908101604052809291908181526020018280546105d390611d3e565b801561061e5780601f106105f55761010080835404028352916020019161061e565b820191905f5260205f20905b81548152906001019060200180831161060157829003601f168201915b5050505050905090565b5f6106328261112b565b505f828152600460205260409020546001600160a01b0316610593565b61065a828233611163565b5050565b6001600160a01b03821661068757604051633250574960e11b81525f60048201526024016101cc565b5f610693838333611170565b9050836001600160a01b0316816001600160a01b0316146106e1576040516364283d7b60e01b81526001600160a01b03808616600483015260248201849052821660448201526064016101cc565b50505050565b6106ef611262565b6106f761128f565b478061073c5760405162461bcd60e51b81526020600482015260146024820152734e6f2066756e647320746f20776974686472617760601b60448201526064016101cc565b5f61074f6007546001600160a01b031690565b6001600160a01b0316826040515f6040518083038185875af1925050503d805f8114610796576040519150601f19603f3d011682016040523d82523d5f602084013e61079b565b606091505b50509050806107e05760405162461bcd60e51b815260206004820152601160248201527015da5d1a191c985dd85b0819985a5b1959607a1b60448201526064016101cc565b50506107ec6001600855565b565b61080883838360405180602001604052805f815250610f01565b505050565b5f6105938261112b565b5f6001600160a01b038216610841576040516322718ad960e21b81525f60048201526024016101cc565b506001600160a01b03165f9081526003602052604090205490565b610864611262565b6107ec5f6112b9565b5f61087661128f565b5f828152600c602052604090205460ff166108e15760405162461bcd60e51b815260206004820152602560248201527f546f6b656e20494420646f6573206e6f7420657869737420696e20636f6c6c6560448201526431ba34b7b760d91b60648201526084016101cc565b5f828152600d602052604090205460ff16156109365760405162461bcd60e51b8152602060048201526014602482015273151bdad95b88185b1c9958591e481b5a5b9d195960621b60448201526064016101cc565b600b54600a54106109895760405162461bcd60e51b815260206004820152601b60248201527f416c6c20746f6b656e732068617665206265656e206d696e746564000000000060448201526064016101cc565b5f828152600e6020526040812054906109a18261130a565b9050803410156109ea5760405162461bcd60e51b8152602060048201526014602482015273125b9cdd59999a58da595b9d081c185e5b595b9d60621b60448201526064016101cc565b6109f4338561136d565b5f848152600f602052604090208054610a93918691610a1290611d3e565b80601f0160208091040260200160405190810160405280929190818152602001828054610a3e90611d3e565b8015610a895780601f10610a6057610100808354040283529160200191610a89565b820191905f5260205f20905b815481529060010190602001808311610a6c57829003601f168201915b5050505050611386565b5f848152600d60205260408120805460ff19166001179055600a805491610ab983611d8a565b909155505f9050610aca8234611da2565b90508015610b59576040515f90339083908381818185875af1925050503d805f8114610b11576040519150601f19603f3d011682016040523d82523d5f602084013e610b16565b606091505b5050905080610b575760405162461bcd60e51b815260206004820152600d60248201526c1499599d5b990819985a5b1959609a1b60448201526064016101cc565b505b604051828152859033907f3a8a89b59a31c39a36febecb987e0657ab7b7c73b60ebacb44dcb9886c2d5c8a9060200160405180910390a3849350505050610ba06001600855565b919050565b6060600180546105a790611d3e565b600b5460609081908190819081908067ffffffffffffffff811115610bdb57610bdb611c1c565b604051908082528060200260200182016040528015610c04578160200160208202803683370190505b5095508067ffffffffffffffff811115610c2057610c20611c1c565b604051908082528060200260200182016040528015610c5357816020015b6060815260200190600190039081610c3e5790505b5094508067ffffffffffffffff811115610c6f57610c6f611c1c565b604051908082528060200260200182016040528015610c98578160200160208202803683370190505b5093508067ffffffffffffffff811115610cb457610cb4611c1c565b604051908082528060200260200182016040528015610cdd578160200160208202803683370190505b5092508067ffffffffffffffff811115610cf957610cf9611c1c565b604051908082528060200260200182016040528015610d22578160200160208202803683370190505b5091505f5b81811015610ece575f600b8281548110610d4357610d43611db5565b905f5260205f200154905080888381518110610d6157610d61611db5565b602002602001018181525050600f5f8281526020019081526020015f208054610d8990611d3e565b80601f0160208091040260200160405190810160405280929190818152602001828054610db590611d3e565b8015610e005780601f10610dd757610100808354040283529160200191610e00565b820191905f5260205f20905b815481529060010190602001808311610de357829003601f168201915b5050505050878381518110610e1757610e17611db5565b6020026020010181905250600e5f8281526020019081526020015f2054868381518110610e4657610e46611db5565b602002602001018181525050610e6c600e5f8381526020019081526020015f205461130a565b858381518110610e7e57610e7e611db5565b6020908102919091018101919091525f828152600d9091526040902054845160ff90911690859084908110610eb557610eb5611db5565b9115156020928302919091019091015250600101610d27565b50509091929394565b600b8181548110610ee6575f80fd5b5f91825260209091200154905081565b61065a3383836113ce565b610f0c84848461065e565b6106e1338585858561146c565b6060610f248261112b565b505f8281526006602052604081208054610f3d90611d3e565b80601f0160208091040260200160405190810160405280929190818152602001828054610f6990611d3e565b8015610fb45780601f10610f8b57610100808354040283529160200191610fb4565b820191905f5260205f20905b815481529060010190602001808311610f9757829003601f168201915b505050505090505f610fd060408051602081019091525f815290565b905080515f03610fe1575092915050565b815115611013578082604051602001610ffb929190611de0565b60405160208183030381529060405292505050919050565b61101c84611594565b949350505050565b61102c611262565b600980549082905560408051828152602081018490527f25de84a545fa2e920c87ed61608c1a1e73712c6f83720133126e05145a028cc491015b60405180910390a15050565b6001600160a01b039182165f90815260056020908152604080832093909416825291909152205460ff1690565b6110a7611262565b6001600160a01b0381166110d057604051631e4fbdf760e01b81525f60048201526024016101cc565b6110d9816112b9565b50565b5f6001600160e01b031982166380ac58cd60e01b148061110c57506001600160e01b03198216635b5e139f60e01b145b8061059357506301ffc9a760e01b6001600160e01b0319831614610593565b5f818152600260205260408120546001600160a01b03168061059357604051637e27328960e01b8152600481018490526024016101cc565b6108088383836001611605565b5f828152600260205260408120546001600160a01b039081169083161561119c5761119c818486611709565b6001600160a01b038116156111d6576111b75f855f5f611605565b6001600160a01b0381165f90815260036020526040902080545f190190555b6001600160a01b03851615611204576001600160a01b0385165f908152600360205260409020805460010190555b5f8481526002602052604080822080546001600160a01b0319166001600160a01b0389811691821790925591518793918516917fddf252ad1be2c89b69c2b068fc378daa952ba7f163c4a11628f55a4df523b3ef91a4949350505050565b6007546001600160a01b031633146107ec5760405163118cdaa760e01b81523360048201526024016101cc565b6002600854036112b257604051633ee5aeb560e01b815260040160405180910390fd5b6002600855565b600780546001600160a01b038381166001600160a01b0319831681179093556040519116919082907f8be0079c531659141344cd1fd0a4f28419497f9722a3daafe3b4186f6b6457e0905f90a35050565b5f80600a61131a6103e885611df4565b6113249190611e0b565b611330906103e8611e2a565b90505f61133d8280611df4565b90505f61134c6103e880611df4565b8260095461135a9190611df4565b6113649190611e0b565b95945050505050565b61065a828260405180602001604052805f81525061176d565b5f82815260066020526040902061139d8282611e81565b506040518281527ff8e1a15aba9398e019f0b49df1a4fde98ee17ae345cb5f6b5e2c27f5033e8ce790602001611066565b6001600160a01b03821661140057604051630b61174360e31b81526001600160a01b03831660048201526024016101cc565b6001600160a01b038381165f81815260056020908152604080832094871680845294825291829020805460ff191686151590811790915591519182527f17307eab39ab6107e8899845ad3d59bd9653f200f220920489ca2b5937696c31910160405180910390a3505050565b6001600160a01b0383163b1561158d57604051630a85bd0160e11b81526001600160a01b0384169063150b7a02906114ae908890889087908790600401611f3c565b6020604051808303815f875af19250505080156114e8575060408051601f3d908101601f191682019092526114e591810190611f78565b60015b61154f573d808015611515576040519150601f19603f3d011682016040523d82523d5f602084013e61151a565b606091505b5080515f0361154757604051633250574960e11b81526001600160a01b03851660048201526024016101cc565b805160208201fd5b6001600160e01b03198116630a85bd0160e11b1461158b57604051633250574960e11b81526001600160a01b03851660048201526024016101cc565b505b5050505050565b606061159f8261112b565b505f6115b560408051602081019091525f815290565b90505f8151116115d35760405180602001604052805f8152506115fe565b806115dd84611784565b6040516020016115ee929190611de0565b6040516020818303038152906040525b9392505050565b808061161957506001600160a01b03821615155b156116da575f6116288461112b565b90506001600160a01b038316158015906116545750826001600160a01b0316816001600160a01b031614155b801561166757506116658184611072565b155b156116905760405163a9fbf51f60e01b81526001600160a01b03841660048201526024016101cc565b81156116d85783856001600160a01b0316826001600160a01b03167f8c5be1e5ebec7d5bd14f71427d1e84f3dd0314c0f7b2291e5b200ac8c7c3b92560405160405180910390a45b505b50505f90815260046020526040902080546001600160a01b0319166001600160a01b0392909216919091179055565b611714838383611814565b610808576001600160a01b03831661174257604051637e27328960e01b8152600481018290526024016101cc565b60405163177e802f60e01b81526001600160a01b0383166004820152602481018290526044016101cc565b6117778383611875565b610808335f85858561146c565b60605f611790836118d6565b60010190505f8167ffffffffffffffff8111156117af576117af611c1c565b6040519080825280601f01601f1916602001820160405280156117d9576020820181803683370190505b5090508181016020015b5f19016f181899199a1a9b1b9c1cb0b131b232b360811b600a86061a8153600a85049450846117e357509392505050565b5f6001600160a01b0383161580159061101c5750826001600160a01b0316846001600160a01b0316148061184d575061184d8484611072565b8061101c5750505f908152600460205260409020546001600160a01b03908116911614919050565b6001600160a01b03821661189e57604051633250574960e11b81525f60048201526024016101cc565b5f6118aa83835f611170565b90506001600160a01b03811615610808576040516339e3563760e11b81525f60048201526024016101cc565b5f8072184f03e93ff9f4daa797ed6e38ed64bf6a1f0160401b83106119145772184f03e93ff9f4daa797ed6e38ed64bf6a1f0160401b830492506040015b6d04ee2d6d415b85acef81000000008310611940576d04ee2d6d415b85acef8100000000830492506020015b662386f26fc10000831061195e57662386f26fc10000830492506010015b6305f5e1008310611976576305f5e100830492506008015b612710831061198a57612710830492506004015b6064831061199c576064830492506002015b600a83106105935760010192915050565b5f602082840312156119bd575f5ffd5b5035919050565b6001600160e01b0319811681146110d9575f5ffd5b5f602082840312156119e9575f5ffd5b81356115fe816119c4565b5f81518084528060208401602086015e5f602082860101526020601f19601f83011685010191505092915050565b602081525f6115fe60208301846119f4565b80356001600160a01b0381168114610ba0575f5ffd5b5f5f60408385031215611a5b575f5ffd5b611a6483611a34565b946020939093013593505050565b5f5f5f60608486031215611a84575f5ffd5b611a8d84611a34565b9250611a9b60208501611a34565b929592945050506040919091013590565b5f60208284031215611abc575f5ffd5b6115fe82611a34565b5f8151808452602084019350602083015f5b82811015611af5578151865260209586019590910190600101611ad7565b5093949350505050565b5f8151808452602084019350602083015f5b82811015611af55781511515865260209586019590910190600101611b11565b60a081525f611b4360a0830188611ac5565b828103602084015280875180835260208301915060208160051b84010160208a015f5b83811015611b9857601f19868403018552611b828383516119f4565b6020958601959093509190910190600101611b66565b50508581036040870152611bac818a611ac5565b93505050508281036060840152611bc38186611ac5565b90508281036080840152611bd78185611aff565b98975050505050505050565b5f5f60408385031215611bf4575f5ffd5b611bfd83611a34565b915060208301358015158114611c11575f5ffd5b809150509250929050565b634e487b7160e01b5f52604160045260245ffd5b5f5f5f5f60808587031215611c43575f5ffd5b611c4c85611a34565b9350611c5a60208601611a34565b925060408501359150606085013567ffffffffffffffff811115611c7c575f5ffd5b8501601f81018713611c8c575f5ffd5b803567ffffffffffffffff811115611ca657611ca6611c1c565b604051601f8201601f19908116603f0116810167ffffffffffffffff81118282101715611cd557611cd5611c1c565b604052818152828201602001891015611cec575f5ffd5b816020840160208301375f6020838301015280935050505092959194509250565b5f5f60408385031215611d1e575f5ffd5b611d2783611a34565b9150611d3560208401611a34565b90509250929050565b600181811c90821680611d5257607f821691505b602082108103611d7057634e487b7160e01b5f52602260045260245ffd5b50919050565b634e487b7160e01b5f52601160045260245ffd5b5f60018201611d9b57611d9b611d76565b5060010190565b8181038181111561059357610593611d76565b634e487b7160e01b5f52603260045260245ffd5b5f81518060208401855e5f93019283525090919050565b5f61101c611dee8386611dc9565b84611dc9565b808202811582820484141761059357610593611d76565b5f82611e2557634e487b7160e01b5f52601260045260245ffd5b500490565b8082018082111561059357610593611d76565b601f82111561080857805f5260205f20601f840160051c81016020851015611e625750805b601f840160051c820191505b8181101561158d575f8155600101611e6e565b815167ffffffffffffffff811115611e9b57611e9b611c1c565b611eaf81611ea98454611d3e565b84611e3d565b6020601f821160018114611ee1575f8315611eca5750848201515b5f19600385901b1c1916600184901b17845561158d565b5f84815260208120601f198516915b82811015611f105787850151825560209485019460019092019101611ef0565b5084821015611f2d57868401515f19600387901b60f8161c191681555b50505050600190811b01905550565b6001600160a01b03858116825284166020820152604081018390526080606082018190525f90611f6e908301846119f4565b9695505050505050565b5f60208284031215611f88575f5ffd5b81516115fe816119c456fea26469706673582212200e68ca45b6b7785f661c8fbf88741b13208961960247ff47847819e82c0ec6e964736f6c634300081c0033",
  "linkReferences": {},
  "deployedLinkReferences": {},
  "immutableReferences": {},
  "inputSourceName": "project/contracts/ThematicNFT.sol",
  "buildInfoId": "solc-0_8_28-e636b6b73714f1dbd676e0d9b7142c3778831a38"
}