{
  "_format": "hh3-artifact-1",
  "contractName": "ThematicNFT",
  "sourceName": "contracts/ThematicNFT.sol",
  "abi": [
    {
      "inputs": [
        {
          "internalType": "address",
          "name": "initialAccount",
          "type": "address"
        },
        {
          "internalType": "uint256",
          "name": "_basePrice",
          "type": "uint256"
        },
        {
          "internalType": "uint256[]",
          "name": "tokenIds",
          "type": "uint256[]"
        },
        {
          "internalType": "string[]",
          "name": "uris",
          "type": "string[]"
        },
        {
          "internalType": "uint256[]",
          "name": "rarities",
          "type": "uint256[]"
        }
      ],
      "stateMutability": "nonpayable",
      "type": "constructor"
    },
    {
      "inputs": [
        {
          "internalType": "address",
          "name": "sender",
          "type": "address"
        },
        {
          "internalType": "uint256",
          "name": "tokenId",
          "type": "uint256"
        },
        {
          "internalType": "address",
          "name": "owner",
          "type": "address"
        }
      ],
      "name": "ERC721IncorrectOwner",
      "type": "error"
    },
    {
      "inputs": [
        {
          "internalType": "address",
          "name": "operator",
          "type": "address"
        },
        {
          "internalType": "uint256",
          "name": "tokenId",
          "type": "uint256"
        }
      ],
      "name": "ERC721InsufficientApproval",
      "type": "error"
    },
    {
      "inputs": [
        {
          "internalType": "address",
          "name": "approver",
          "type": "address"
        }
      ],
      "name": "ERC721InvalidApprover",
      "type": "error"
    },
    {
      "inputs": [
        {
          "internalType": "address",
          "name": "operator",
          "type": "address"
        }
      ],
      "name": "ERC721InvalidOperator",
      "type": "error"
    },
    {
      "inputs": [
        {
          "internalType": "address",
          "name": "owner",
          "type": "address"
        }
      ],
      "name": "ERC721InvalidOwner",
      "type": "error"
    },
    {
      "inputs": [
        {
          "internalType": "address",
          "name": "receiver",
          "type": "address"
        }
      ],
      "name": "ERC721InvalidReceiver",
      "type": "error"
    },
    {
      "inputs": [
        {
          "internalType": "address",
          "name": "sender",
          "type": "address"
        }
      ],
      "name": "ERC721InvalidSender",
      "type": "error"
    },
    {
      "inputs": [
        {
          "internalType": "uint256",
          "name": "tokenId",
          "type": "uint256"
        }
      ],
      "name": "ERC721NonexistentToken",
      "type": "error"
    },
    {
      "inputs": [
        {
          "internalType": "address",
          "name": "owner",
          "type": "address"
        }
      ],
      "name": "OwnableInvalidOwner",
      "type": "error"
    },
    {
      "inputs": [
        {
          "internalType": "address",
          "name": "account",
          "type": "address"
        }
      ],
      "name": "OwnableUnauthorizedAccount",
      "type": "error"
    },
    {
      "anonymous": false,
      "inputs": [
        {
          "indexed": true,
          "internalType": "address",
          "name": "owner",
          "type": "address"
        },
        {
          "indexed": true,
          "internalType": "address",
          "name": "approved",
          "type": "address"
        },
        {
          "indexed": true,
          "internalType": "uint256",
          "name": "tokenId",
          "type": "uint256"
        }
      ],
      "name": "Approval",
      "type": "event"
    },
    {
      "anonymous": false,
      "inputs": [
        {
          "indexed": true,
          "internalType": "address",
          "name": "owner",
          "type": "address"
        },
        {
          "indexed": true,
          "internalType": "address",
          "name": "operator",
          "type": "address"
        },
        {
          "indexed": false,
          "internalType": "bool",
          "name": "approved",
          "type": "bool"
        }
      ],
      "name": "ApprovalForAll",
      "type": "event"
    },
    {
      "anonymous": false,
      "inputs": [
        {
          "indexed": false,
          "internalType": "uint256",
          "name": "_fromTokenId",
          "type": "uint256"
        },
        {
          "indexed": false,
          "internalType": "uint256",
          "name": "_toTokenId",
          "type": "uint256"
        }
      ],
      "name": "BatchMetadataUpdate",
      "type": "event"
    },
    {
      "anonymous": false,
      "inputs": [
        {
          "indexed": false,
          "internalType": "uint256",
          "name": "_tokenId",
          "type": "uint256"
        }
      ],
      "name": "MetadataUpdate",
      "type": "event"
    },
    {
      "anonymous": false,
      "inputs": [
        {
          "indexed": true,
          "internalType": "address",
          "name": "buyer",
          "type": "address"
        },
        {
          "indexed": true,
          "internalType": "uint256",
          "name": "tokenId",
          "type": "uint256"
        },
        {
          "indexed": false,
          "internalType": "uint256",
          "name": "price",
          "type": "uint256"
        }
      ],
      "name": "NFTMinted",
      "type": "event"
    },
    {
      "anonymous": false,
      "inputs": [
        {
          "indexed": true,
          "internalType": "address",
          "name": "previousOwner",
          "type": "address"
        },
        {
          "indexed": true,
          "internalType": "address",
          "name": "newOwner",
          "type": "address"
        }
      ],
      "name": "OwnershipTransferred",
      "type": "event"
    },
    {
      "anonymous": false,
      "inputs": [
        {
          "indexed": true,
          "internalType": "address",
          "name": "from",
          "type": "address"
        },
        {
          "indexed": true,
          "internalType": "address",
          "name": "to",
          "type": "address"
        },
        {
          "indexed": true,
          "internalType": "uint256",
          "name": "tokenId",
          "type": "uint256"
        }
      ],
      "name": "Transfer",
      "type": "event"
    },
    {
      "stateMutability": "payable",
      "type": "fallback"
    },
    {
      "inputs": [
        {
          "internalType": "uint256",
          "name": "",
          "type": "uint256"
        }
      ],
      "name": "_allTokenIds",
      "outputs": [
        {
          "internalType": "uint256",
          "name": "",
          "type": "uint256"
        }
      ],
      "stateMutability": "view",
      "type": "function"
    },
    {
      "inputs": [
        {
          "internalType": "address",
          "name": "to",
          "type": "address"
        },
        {
          "internalType": "uint256",
          "name": "tokenId",
          "type": "uint256"
        }
      ],
      "name": "approve",
      "outputs": [],
      "stateMutability": "nonpayable",
      "type": "function"
    },
    {
      "inputs": [
        {
          "internalType": "address",
          "name": "owner",
          "type": "address"
        }
      ],
      "name": "balanceOf",
      "outputs": [
        {
          "internalType": "uint256",
          "name": "",
          "type": "uint256"
        }
      ],
      "stateMutability": "view",
      "type": "function"
    },
    {
      "inputs": [],
      "name": "basePrice",
      "outputs": [
        {
          "internalType": "uint256",
          "name": "",
          "type": "uint256"
        }
      ],
      "stateMutability": "view",
      "type": "function"
    },
    {
      "inputs": [
        {
          "internalType": "uint256",
          "name": "tokenId",
          "type": "uint256"
        }
      ],
      "name": "getApproved",
      "outputs": [
        {
          "internalType": "address",
          "name": "",
          "type": "address"
        }
      ],
      "stateMutability": "view",
      "type": "function"
    },
    {
      "inputs": [],
      "name": "getAvialablesTokens",
      "outputs": [
        {
          "internalType": "uint256[]",
          "name": "",
          "type": "uint256[]"
        }
      ],
      "stateMutability": "view",
      "type": "function"
    },
    {
      "inputs": [
        {
          "internalType": "uint256",
          "name": "rarity",
          "type": "uint256"
        }
      ],
      "name": "getPrice",
      "outputs": [
        {
          "internalType": "uint256",
          "name": "",
          "type": "uint256"
        }
      ],
      "stateMutability": "view",
      "type": "function"
    },
    {
      "inputs": [
        {
          "internalType": "uint256",
          "name": "tokenId",
          "type": "uint256"
        }
      ],
      "name": "getTokenData",
      "outputs": [
        {
          "internalType": "string",
          "name": "",
          "type": "string"
        },
        {
          "internalType": "uint256",
          "name": "tokenRarity",
          "type": "uint256"
        }
      ],
      "stateMutability": "view",
      "type": "function"
    },
    {
      "inputs": [
        {
          "internalType": "uint256",
          "name": "tokenId",
          "type": "uint256"
        }
      ],
      "name": "getTokenInfo",
      "outputs": [
        {
          "internalType": "string",
          "name": "uri",
          "type": "string"
        },
        {
          "internalType": "uint256",
          "name": "rarity",
          "type": "uint256"
        },
        {
          "internalType": "uint256",
          "name": "price",
          "type": "uint256"
        },
        {
          "internalType": "bool",
          "name": "isMinted",
          "type": "bool"
        }
      ],
      "stateMutability": "view",
      "type": "function"
    },
    {
      "inputs": [
        {
          "internalType": "address",
          "name": "owner",
          "type": "address"
        },
        {
          "internalType": "address",
          "name": "operator",
          "type": "address"
        }
      ],
      "name": "isApprovedForAll",
      "outputs": [
        {
          "internalType": "bool",
          "name": "",
          "type": "bool"
        }
      ],
      "stateMutability": "view",
      "type": "function"
    },
    {
      "inputs": [],
      "name": "maxSupply",
      "outputs": [
        {
          "internalType": "uint256",
          "name": "",
          "type": "uint256"
        }
      ],
      "stateMutability": "view",
      "type": "function"
    },
    {
      "inputs": [
        {
          "internalType": "uint256",
          "name": "tokenId",
          "type": "uint256"
        }
      ],
      "name": "mintNFT",
      "outputs": [
        {
          "internalType": "uint256",
          "name": "",
          "type": "uint256"
        }
      ],
      "stateMutability": "payable",
      "type": "function"
    },
    {
      "inputs": [
        {
          "internalType": "uint256",
          "name": "",
          "type": "uint256"
        }
      ],
      "name": "minted",
      "outputs": [
        {
          "internalType": "bool",
          "name": "",
          "type": "bool"
        }
      ],
      "stateMutability": "view",
      "type": "function"
    },
    {
      "inputs": [],
      "name": "name",
      "outputs": [
        {
          "internalType": "string",
          "name": "",
          "type": "string"
        }
      ],
      "stateMutability": "view",
      "type": "function"
    },
    {
      "inputs": [],
      "name": "owner",
      "outputs": [
        {
          "internalType": "address",
          "name": "",
          "type": "address"
        }
      ],
      "stateMutability": "view",
      "type": "function"
    },
    {
      "inputs": [
        {
          "internalType": "uint256",
          "name": "tokenId",
          "type": "uint256"
        }
      ],
      "name": "ownerOf",
      "outputs": [
        {
          "internalType": "address",
          "name": "",
          "type": "address"
        }
      ],
      "stateMutability": "view",
      "type": "function"
    },
    {
      "inputs": [
        {
          "internalType": "uint256",
          "name": "",
          "type": "uint256"
        }
      ],
      "name": "rarityMap",
      "outputs": [
        {
          "internalType": "uint256",
          "name": "",
          "type": "uint256"
        }
      ],
      "stateMutability": "view",
      "type": "function"
    },
    {
      "inputs": [],
      "name": "renounceOwnership",
      "outputs": [],
      "stateMutability": "nonpayable",
      "type": "function"
    },
    {
      "inputs": [
        {
          "internalType": "address",
          "name": "from",
          "type": "address"
        },
        {
          "internalType": "address",
          "name": "to",
          "type": "address"
        },
        {
          "internalType": "uint256",
          "name": "tokenId",
          "type": "uint256"
        }
      ],
      "name": "safeTransferFrom",
      "outputs": [],
      "stateMutability": "nonpayable",
      "type": "function"
    },
    {
      "inputs": [
        {
          "internalType": "address",
          "name": "from",
          "type": "address"
        },
        {
          "internalType": "address",
          "name": "to",
          "type": "address"
        },
        {
          "internalType": "uint256",
          "name": "tokenId",
          "type": "uint256"
        },
        {
          "internalType": "bytes",
          "name": "data",
          "type": "bytes"
        }
      ],
      "name": "safeTransferFrom",
      "outputs": [],
      "stateMutability": "nonpayable",
      "type": "function"
    },
    {
      "inputs": [
        {
          "internalType": "address",
          "name": "operator",
          "type": "address"
        },
        {
          "internalType": "bool",
          "name": "approved",
          "type": "bool"
        }
      ],
      "name": "setApprovalForAll",
      "outputs": [],
      "stateMutability": "nonpayable",
      "type": "function"
    },
    {
      "inputs": [
        {
          "internalType": "uint256",
          "name": "newBasePrice",
          "type": "uint256"
        }
      ],
      "name": "setBasePrice",
      "outputs": [],
      "stateMutability": "nonpayable",
      "type": "function"
    },
    {
      "inputs": [
        {
          "internalType": "bytes4",
          "name": "interfaceId",
          "type": "bytes4"
        }
      ],
      "name": "supportsInterface",
      "outputs": [
        {
          "internalType": "bool",
          "name": "",
          "type": "bool"
        }
      ],
      "stateMutability": "view",
      "type": "function"
    },
    {
      "inputs": [],
      "name": "symbol",
      "outputs": [
        {
          "internalType": "string",
          "name": "",
          "type": "string"
        }
      ],
      "stateMutability": "view",
      "type": "function"
    },
    {
      "inputs": [
        {
          "internalType": "uint256",
          "name": "tokenId",
          "type": "uint256"
        }
      ],
      "name": "tokenURI",
      "outputs": [
        {
          "internalType": "string",
          "name": "",
          "type": "string"
        }
      ],
      "stateMutability": "view",
      "type": "function"
    },
    {
      "inputs": [],
      "name": "totalSupply",
      "outputs": [
        {
          "internalType": "uint256",
          "name": "",
          "type": "uint256"
        }
      ],
      "stateMutability": "view",
      "type": "function"
    },
    {
      "inputs": [
        {
          "internalType": "address",
          "name": "from",
          "type": "address"
        },
        {
          "internalType": "address",
          "name": "to",
          "type": "address"
        },
        {
          "internalType": "uint256",
          "name": "tokenId",
          "type": "uint256"
        }
      ],
      "name": "transferFrom",
      "outputs": [],
      "stateMutability": "nonpayable",
      "type": "function"
    },
    {
      "inputs": [
        {
          "internalType": "address",
          "name": "newOwner",
          "type": "address"
        }
      ],
      "name": "transferOwnership",
      "outputs": [],
      "stateMutability": "nonpayable",
      "type": "function"
    },
    {
      "inputs": [],
      "name": "withdraw",
      "outputs": [],
      "stateMutability": "nonpayable",
      "type": "function"
    },
    {
      "stateMutability": "payable",
      "type": "receive"
    }
  ],
  "bytecode": "0x608060405234801561000f575f5ffd5b506040516124db3803806124db83398101604081905261002e916104e2565b846040518060400160405280600b81526020016a151a195b585d1a58d3919560aa1b815250604051806040016040528060048152602001631513919560e21b815250815f908161007e919061061d565b50600161008b828261061d565b5050506001600160a01b0381166100bc57604051631e4fbdf760e01b81525f60048201526024015b60405180910390fd5b6100c58161010c565b50600884905582516100de90600b9060208601906102d9565b506100ea83838361015d565b6001600160a01b03851615610102576101028561026d565b50505050506106eb565b600780546001600160a01b038381166001600160a01b0319831681179093556040519116919082907f8be0079c531659141344cd1fd0a4f28419497f9722a3daafe3b4186f6b6457e0905f90a35050565b8051835114801561016f575080518251145b6101bb5760405162461bcd60e51b815260206004820152601a60248201527f417272617973206d7573742062652073616d65206c656e67746800000000000060448201526064016100b3565b5f5b8351811015610267578181815181106101d8576101d86106d7565b6020026020010151600d5f8684815181106101f5576101f56106d7565b602002602001015181526020019081526020015f2081905550828181518110610220576102206106d7565b6020026020010151600e5f86848151811061023d5761023d6106d7565b602002602001015181526020019081526020015f20908161025e919061061d565b506001016101bd565b50505050565b6102756102aa565b6001600160a01b03811661029e57604051631e4fbdf760e01b81525f60048201526024016100b3565b6102a78161010c565b50565b6007546001600160a01b031633146102d75760405163118cdaa760e01b81523360048201526024016100b3565b565b828054828255905f5260205f20908101928215610312579160200282015b828111156103125782518255916020019190600101906102f7565b5061031e929150610322565b5090565b5b8082111561031e575f8155600101610323565b634e487b7160e01b5f52604160045260245ffd5b604051601f8201601f191681016001600160401b038111828210171561037257610372610336565b604052919050565b5f6001600160401b0382111561039257610392610336565b5060051b60200190565b5f82601f8301126103ab575f5ffd5b81516103be6103b98261037a565b61034a565b8082825260208201915060208360051b8601019250858311156103df575f5ffd5b602085015b838110156103fc5780518352602092830192016103e4565b5095945050505050565b5f82601f830112610415575f5ffd5b81516104236103b98261037a565b8082825260208201915060208360051b860101925085831115610444575f5ffd5b602085015b838110156103fc5780516001600160401b03811115610466575f5ffd5b8601603f81018813610476575f5ffd5b60208101516001600160401b0381111561049257610492610336565b6104a5601f8201601f191660200161034a565b8181526040838301018a10156104b9575f5ffd5b8160408401602083015e5f60208383010152808652505050602083019250602081019050610449565b5f5f5f5f5f60a086880312156104f6575f5ffd5b85516001600160a01b038116811461050c575f5ffd5b6020870151604088015191965094506001600160401b0381111561052e575f5ffd5b61053a8882890161039c565b606088015190945090506001600160401b03811115610557575f5ffd5b61056388828901610406565b608088015190935090506001600160401b03811115610580575f5ffd5b61058c8882890161039c565b9150509295509295909350565b600181811c908216806105ad57607f821691505b6020821081036105cb57634e487b7160e01b5f52602260045260245ffd5b50919050565b601f82111561061857805f5260205f20601f840160051c810160208510156105f65750805b601f840160051c820191505b81811015610615575f8155600101610602565b50505b505050565b81516001600160401b0381111561063657610636610336565b61064a816106448454610599565b846105d1565b6020601f82116001811461067c575f83156106655750848201515b5f19600385901b1c1916600184901b178455610615565b5f84815260208120601f198516915b828110156106ab578785015182556020948501946001909201910161068b565b50848210156106c857868401515f19600387901b60f8161c191681555b50505050600190811b01905550565b634e487b7160e01b5f52603260045260245ffd5b611de3806106f85f395ff3fe6080604052600436106101c5575f3560e01c80638c7a63ae116100f6578063b88d4fde11610094578063de4b326211610063578063de4b326214610592578063e7572230146105b1578063e985e9c5146105d0578063f2fde38b146105ef57610217565b8063b88d4fde1461052b578063c7876ea41461054a578063c87b56dd1461055f578063d5abeb011461057e57610217565b806395d89b41116100d057806395d89b41146104ac5780639a707f90146104c0578063a22cb465146104df578063b09afec1146104fe57610217565b80638c7a63ae1461044d5780638da5cb5b1461047c578063926427441461049957610217565b80633ccfd60b116101635780636352211e1161013d5780636352211e146103cd57806370a08231146103ec578063715018a61461040b5780637dc0bf3f1461041f57610217565b80633ccfd60b1461036f57806342842e0e146103835780635f41ddbe146103a257610217565b8063081812fc1161019f578063081812fc146102d5578063095ea7b31461030c57806318160ddd1461032d57806323b872dd1461035057610217565b806301ffc9a71461025f57806306fdde03146102935780630767face146102b457610217565b366102175760405162461bcd60e51b815260206004820152601d60248201527f557365206d696e744e465428746f6b656e4964292066756e6374696f6e00000060448201526064015b60405180910390fd5b60405162461bcd60e51b815260206004820152601d60248201527f557365206d696e744e465428746f6b656e4964292066756e6374696f6e000000604482015260640161020e565b34801561026a575f5ffd5b5061027e610279366004611862565b61060e565b60405190151581526020015b60405180910390f35b34801561029e575f5ffd5b506102a7610638565b60405161028a91906118ab565b3480156102bf575f5ffd5b506102c86106c7565b60405161028a91906118bd565b3480156102e0575f5ffd5b506102f46102ef3660046118ff565b6107bd565b6040516001600160a01b03909116815260200161028a565b348015610317575f5ffd5b5061032b610326366004611931565b6107e4565b005b348015610338575f5ffd5b50610342600a5481565b60405190815260200161028a565b34801561035b575f5ffd5b5061032b61036a366004611959565b6107f3565b34801561037a575f5ffd5b5061032b61087c565b34801561038e575f5ffd5b5061032b61039d366004611959565b610900565b3480156103ad575f5ffd5b506103426103bc3660046118ff565b600d6020525f908152604090205481565b3480156103d8575f5ffd5b506102f46103e73660046118ff565b61091f565b3480156103f7575f5ffd5b50610342610406366004611993565b610929565b348015610416575f5ffd5b5061032b61096e565b34801561042a575f5ffd5b5061027e6104393660046118ff565b600c6020525f908152604090205460ff1681565b348015610458575f5ffd5b5061046c6104673660046118ff565b610981565b60405161028a94939291906119ac565b348015610487575f5ffd5b506007546001600160a01b03166102f4565b6103426104a73660046118ff565b610a5a565b3480156104b7575f5ffd5b506102a7610d1a565b3480156104cb575f5ffd5b506103426104da3660046118ff565b610d29565b3480156104ea575f5ffd5b5061032b6104f93660046119dc565b610d48565b348015610509575f5ffd5b5061051d6105183660046118ff565b610d53565b60405161028a929190611a15565b348015610536575f5ffd5b5061032b610545366004611a4a565b610e05565b348015610555575f5ffd5b5061034260085481565b34801561056a575f5ffd5b506102a76105793660046118ff565b610e1d565b348015610589575f5ffd5b50600b54610342565b34801561059d575f5ffd5b5061032b6105ac3660046118ff565b610f28565b3480156105bc575f5ffd5b506103426105cb3660046118ff565b610f35565b3480156105db575f5ffd5b5061027e6105ea366004611b27565b610f98565b3480156105fa575f5ffd5b5061032b610609366004611993565b610fc5565b5f6001600160e01b03198216632483248360e11b1480610632575061063282611002565b92915050565b60605f805461064690611b58565b80601f016020809104026020016040519081016040528092919081815260200182805461067290611b58565b80156106bd5780601f10610694576101008083540402835291602001916106bd565b820191905f5260205f20905b8154815290600101906020018083116106a057829003601f168201915b5050505050905090565b600a54600b546060915f916106dc9190611ba4565b90505f8167ffffffffffffffff8111156106f8576106f8611a36565b604051908082528060200260200182016040528015610721578160200160208202803683370190505b5090505f805b600b548110801561073757508381105b156107b4575f600b828154811061075057610750611bb7565b5f918252602080832090910154808352600c90915260409091205490915060ff166107a1578084848151811061078857610788611bb7565b60209081029190910101528261079d81611bcb565b9350505b50806107ac81611bcb565b915050610727565b50909392505050565b5f6107c782611051565b505f828152600460205260409020546001600160a01b0316610632565b6107ef828233611089565b5050565b6001600160a01b03821661081c57604051633250574960e11b81525f600482015260240161020e565b5f610828838333611096565b9050836001600160a01b0316816001600160a01b031614610876576040516364283d7b60e01b81526001600160a01b038086166004830152602482018490528216604482015260640161020e565b50505050565b610884611188565b47806108c95760405162461bcd60e51b81526020600482015260146024820152734e6f2066756e647320746f20776974686472617760601b604482015260640161020e565b6007546040516001600160a01b039091169082156108fc029083905f818181858888f193505050501580156107ef573d5f5f3e3d5ffd5b61091a83838360405180602001604052805f815250610e05565b505050565b5f61063282611051565b5f6001600160a01b038216610953576040516322718ad960e21b81525f600482015260240161020e565b506001600160a01b03165f9081526003602052604090205490565b610976611188565b61097f5f6111b5565b565b60605f5f5f600e5f8681526020019081526020015f2080546109a290611b58565b80601f01602080910402602001604051908101604052809291908181526020018280546109ce90611b58565b8015610a195780601f106109f057610100808354040283529160200191610a19565b820191905f5260205f20905b8154815290600101906020018083116109fc57829003601f168201915b50505050509350600d5f8681526020019081526020015f20549250610a3d83610f35565b5f958652600c602052604090952054939592949360ff1692915050565b5f818152600c602052604081205460ff1615610aaf5760405162461bcd60e51b8152602060048201526014602482015273151bdad95b88185b1c9958591e481b5a5b9d195960621b604482015260640161020e565b5f828152600e602052604081208054610ac790611b58565b905011610b165760405162461bcd60e51b815260206004820152601760248201527f546f6b656e20494420646f6573206e6f74206578697374000000000000000000604482015260640161020e565b600b54600a5410610b695760405162461bcd60e51b815260206004820152601b60248201527f416c6c20746f6b656e732068617665206265656e206d696e7465640000000000604482015260640161020e565b5f828152600d602052604081205490610b8182610f35565b905080341015610bca5760405162461bcd60e51b8152602060048201526014602482015273125b9cdd59999a58da595b9d081c185e5b595b9d60621b604482015260640161020e565b610bd43385611206565b5f848152600e602052604090208054610c73918691610bf290611b58565b80601f0160208091040260200160405190810160405280929190818152602001828054610c1e90611b58565b8015610c695780601f10610c4057610100808354040283529160200191610c69565b820191905f5260205f20905b815481529060010190602001808311610c4c57829003601f168201915b505050505061121f565b5f848152600c60205260408120805460ff19166001179055600a805491610c9983611bcb565b919050555080341115610cdb57336108fc610cb48334611ba4565b6040518115909202915f818181858888f19350505050158015610cd9573d5f5f3e3d5ffd5b505b604051818152849033907f3a8a89b59a31c39a36febecb987e0657ab7b7c73b60ebacb44dcb9886c2d5c8a9060200160405180910390a3509192915050565b60606001805461064690611b58565b600b8181548110610d38575f80fd5b5f91825260209091200154905081565b6107ef33838361126e565b5f818152600e60209081526040808320600d90925282205481546060939291908290610d7e90611b58565b80601f0160208091040260200160405190810160405280929190818152602001828054610daa90611b58565b8015610df55780601f10610dcc57610100808354040283529160200191610df5565b820191905f5260205f20905b815481529060010190602001808311610dd857829003601f168201915b5050505050915091509150915091565b610e108484846107f3565b610876338585858561130c565b6060610e2882611051565b505f8281526006602052604081208054610e4190611b58565b80601f0160208091040260200160405190810160405280929190818152602001828054610e6d90611b58565b8015610eb85780601f10610e8f57610100808354040283529160200191610eb8565b820191905f5260205f20905b815481529060010190602001808311610e9b57829003601f168201915b505050505090505f610ed460408051602081019091525f815290565b905080515f03610ee5575092915050565b815115610f17578082604051602001610eff929190611bfa565b60405160208183030381529060405292505050919050565b610f2084611434565b949350505050565b610f30611188565b600855565b5f80600a610f456103e885611c0e565b610f4f9190611c25565b610f5b906103e8611c44565b90505f610f688280611c0e565b90505f610f776103e880611c0e565b82600854610f859190611c0e565b610f8f9190611c25565b95945050505050565b6001600160a01b039182165f90815260056020908152604080832093909416825291909152205460ff1690565b610fcd611188565b6001600160a01b038116610ff657604051631e4fbdf760e01b81525f600482015260240161020e565b610fff816111b5565b50565b5f6001600160e01b031982166380ac58cd60e01b148061103257506001600160e01b03198216635b5e139f60e01b145b8061063257506301ffc9a760e01b6001600160e01b0319831614610632565b5f818152600260205260408120546001600160a01b03168061063257604051637e27328960e01b81526004810184905260240161020e565b61091a83838360016114a5565b5f828152600260205260408120546001600160a01b03908116908316156110c2576110c28184866115a9565b6001600160a01b038116156110fc576110dd5f855f5f6114a5565b6001600160a01b0381165f90815260036020526040902080545f190190555b6001600160a01b0385161561112a576001600160a01b0385165f908152600360205260409020805460010190555b5f8481526002602052604080822080546001600160a01b0319166001600160a01b0389811691821790925591518793918516917fddf252ad1be2c89b69c2b068fc378daa952ba7f163c4a11628f55a4df523b3ef91a4949350505050565b6007546001600160a01b0316331461097f5760405163118cdaa760e01b815233600482015260240161020e565b600780546001600160a01b038381166001600160a01b0319831681179093556040519116919082907f8be0079c531659141344cd1fd0a4f28419497f9722a3daafe3b4186f6b6457e0905f90a35050565b6107ef828260405180602001604052805f81525061160d565b5f8281526006602052604090206112368282611c9b565b506040518281527ff8e1a15aba9398e019f0b49df1a4fde98ee17ae345cb5f6b5e2c27f5033e8ce79060200160405180910390a15050565b6001600160a01b0382166112a057604051630b61174360e31b81526001600160a01b038316600482015260240161020e565b6001600160a01b038381165f81815260056020908152604080832094871680845294825291829020805460ff191686151590811790915591519182527f17307eab39ab6107e8899845ad3d59bd9653f200f220920489ca2b5937696c31910160405180910390a3505050565b6001600160a01b0383163b1561142d57604051630a85bd0160e11b81526001600160a01b0384169063150b7a029061134e908890889087908790600401611d56565b6020604051808303815f875af1925050508015611388575060408051601f3d908101601f1916820190925261138591810190611d92565b60015b6113ef573d8080156113b5576040519150601f19603f3d011682016040523d82523d5f602084013e6113ba565b606091505b5080515f036113e757604051633250574960e11b81526001600160a01b038516600482015260240161020e565b805160208201fd5b6001600160e01b03198116630a85bd0160e11b1461142b57604051633250574960e11b81526001600160a01b038516600482015260240161020e565b505b5050505050565b606061143f82611051565b505f61145560408051602081019091525f815290565b90505f8151116114735760405180602001604052805f81525061149e565b8061147d84611624565b60405160200161148e929190611bfa565b6040516020818303038152906040525b9392505050565b80806114b957506001600160a01b03821615155b1561157a575f6114c884611051565b90506001600160a01b038316158015906114f45750826001600160a01b0316816001600160a01b031614155b801561150757506115058184610f98565b155b156115305760405163a9fbf51f60e01b81526001600160a01b038416600482015260240161020e565b81156115785783856001600160a01b0316826001600160a01b03167f8c5be1e5ebec7d5bd14f71427d1e84f3dd0314c0f7b2291e5b200ac8c7c3b92560405160405180910390a45b505b50505f90815260046020526040902080546001600160a01b0319166001600160a01b0392909216919091179055565b6115b48383836116b4565b61091a576001600160a01b0383166115e257604051637e27328960e01b81526004810182905260240161020e565b60405163177e802f60e01b81526001600160a01b03831660048201526024810182905260440161020e565b6116178383611715565b61091a335f85858561130c565b60605f61163083611776565b60010190505f8167ffffffffffffffff81111561164f5761164f611a36565b6040519080825280601f01601f191660200182016040528015611679576020820181803683370190505b5090508181016020015b5f19016f181899199a1a9b1b9c1cb0b131b232b360811b600a86061a8153600a850494508461168357509392505050565b5f6001600160a01b03831615801590610f205750826001600160a01b0316846001600160a01b031614806116ed57506116ed8484610f98565b80610f205750505f908152600460205260409020546001600160a01b03908116911614919050565b6001600160a01b03821661173e57604051633250574960e11b81525f600482015260240161020e565b5f61174a83835f611096565b90506001600160a01b0381161561091a576040516339e3563760e11b81525f600482015260240161020e565b5f8072184f03e93ff9f4daa797ed6e38ed64bf6a1f0160401b83106117b45772184f03e93ff9f4daa797ed6e38ed64bf6a1f0160401b830492506040015b6d04ee2d6d415b85acef810000000083106117e0576d04ee2d6d415b85acef8100000000830492506020015b662386f26fc1000083106117fe57662386f26fc10000830492506010015b6305f5e1008310611816576305f5e100830492506008015b612710831061182a57612710830492506004015b6064831061183c576064830492506002015b600a83106106325760010192915050565b6001600160e01b031981168114610fff575f5ffd5b5f60208284031215611872575f5ffd5b813561149e8161184d565b5f81518084528060208401602086015e5f602082860101526020601f19601f83011685010191505092915050565b602081525f61149e602083018461187d565b602080825282518282018190525f918401906040840190835b818110156118f45783518352602093840193909201916001016118d6565b509095945050505050565b5f6020828403121561190f575f5ffd5b5035919050565b80356001600160a01b038116811461192c575f5ffd5b919050565b5f5f60408385031215611942575f5ffd5b61194b83611916565b946020939093013593505050565b5f5f5f6060848603121561196b575f5ffd5b61197484611916565b925061198260208501611916565b929592945050506040919091013590565b5f602082840312156119a3575f5ffd5b61149e82611916565b608081525f6119be608083018761187d565b60208301959095525060408101929092521515606090910152919050565b5f5f604083850312156119ed575f5ffd5b6119f683611916565b915060208301358015158114611a0a575f5ffd5b809150509250929050565b604081525f611a27604083018561187d565b90508260208301529392505050565b634e487b7160e01b5f52604160045260245ffd5b5f5f5f5f60808587031215611a5d575f5ffd5b611a6685611916565b9350611a7460208601611916565b925060408501359150606085013567ffffffffffffffff811115611a96575f5ffd5b8501601f81018713611aa6575f5ffd5b803567ffffffffffffffff811115611ac057611ac0611a36565b604051601f8201601f19908116603f0116810167ffffffffffffffff81118282101715611aef57611aef611a36565b604052818152828201602001891015611b06575f5ffd5b816020840160208301375f6020838301015280935050505092959194509250565b5f5f60408385031215611b38575f5ffd5b611b4183611916565b9150611b4f60208401611916565b90509250929050565b600181811c90821680611b6c57607f821691505b602082108103611b8a57634e487b7160e01b5f52602260045260245ffd5b50919050565b634e487b7160e01b5f52601160045260245ffd5b8181038181111561063257610632611b90565b634e487b7160e01b5f52603260045260245ffd5b5f60018201611bdc57611bdc611b90565b5060010190565b5f81518060208401855e5f93019283525090919050565b5f610f20611c088386611be3565b84611be3565b808202811582820484141761063257610632611b90565b5f82611c3f57634e487b7160e01b5f52601260045260245ffd5b500490565b8082018082111561063257610632611b90565b601f82111561091a57805f5260205f20601f840160051c81016020851015611c7c5750805b601f840160051c820191505b8181101561142d575f8155600101611c88565b815167ffffffffffffffff811115611cb557611cb5611a36565b611cc981611cc38454611b58565b84611c57565b6020601f821160018114611cfb575f8315611ce45750848201515b5f19600385901b1c1916600184901b17845561142d565b5f84815260208120601f198516915b82811015611d2a5787850151825560209485019460019092019101611d0a565b5084821015611d4757868401515f19600387901b60f8161c191681555b50505050600190811b01905550565b6001600160a01b03858116825284166020820152604081018390526080606082018190525f90611d889083018461187d565b9695505050505050565b5f60208284031215611da2575f5ffd5b815161149e8161184d56fea2646970667358221220677f2f51983a797511d26d77748227904a1ceb5858b96c0aa87f66b8bbd4cca464736f6c634300081c0033",
  "linkReferences": {},
  "deployedLinkReferences": {},
  "immutableReferences": {},
  "inputSourceName": "project/contracts/ThematicNFT.sol",
  "buildInfoId": "solc-0_8_28-d40c305cb508c4367083dc581666e5171ff5c98a"
}