{
  "_format": "hh3-artifact-1",
  "contractName": "ThematicNFT",
  "sourceName": "contracts/ThematicNFT.sol",
  "abi": [
    {
      "inputs": [
        {
          "internalType": "address",
          "name": "initialAccount",
          "type": "address"
        },
        {
          "internalType": "uint256",
          "name": "_basePrice",
          "type": "uint256"
        },
        {
          "internalType": "uint256[]",
          "name": "tokenIds",
          "type": "uint256[]"
        },
        {
          "internalType": "string[]",
          "name": "uris",
          "type": "string[]"
        },
        {
          "internalType": "uint256[]",
          "name": "rarities",
          "type": "uint256[]"
        }
      ],
      "stateMutability": "nonpayable",
      "type": "constructor"
    },
    {
      "inputs": [
        {
          "internalType": "address",
          "name": "sender",
          "type": "address"
        },
        {
          "internalType": "uint256",
          "name": "tokenId",
          "type": "uint256"
        },
        {
          "internalType": "address",
          "name": "owner",
          "type": "address"
        }
      ],
      "name": "ERC721IncorrectOwner",
      "type": "error"
    },
    {
      "inputs": [
        {
          "internalType": "address",
          "name": "operator",
          "type": "address"
        },
        {
          "internalType": "uint256",
          "name": "tokenId",
          "type": "uint256"
        }
      ],
      "name": "ERC721InsufficientApproval",
      "type": "error"
    },
    {
      "inputs": [
        {
          "internalType": "address",
          "name": "approver",
          "type": "address"
        }
      ],
      "name": "ERC721InvalidApprover",
      "type": "error"
    },
    {
      "inputs": [
        {
          "internalType": "address",
          "name": "operator",
          "type": "address"
        }
      ],
      "name": "ERC721InvalidOperator",
      "type": "error"
    },
    {
      "inputs": [
        {
          "internalType": "address",
          "name": "owner",
          "type": "address"
        }
      ],
      "name": "ERC721InvalidOwner",
      "type": "error"
    },
    {
      "inputs": [
        {
          "internalType": "address",
          "name": "receiver",
          "type": "address"
        }
      ],
      "name": "ERC721InvalidReceiver",
      "type": "error"
    },
    {
      "inputs": [
        {
          "internalType": "address",
          "name": "sender",
          "type": "address"
        }
      ],
      "name": "ERC721InvalidSender",
      "type": "error"
    },
    {
      "inputs": [
        {
          "internalType": "uint256",
          "name": "tokenId",
          "type": "uint256"
        }
      ],
      "name": "ERC721NonexistentToken",
      "type": "error"
    },
    {
      "inputs": [
        {
          "internalType": "address",
          "name": "owner",
          "type": "address"
        }
      ],
      "name": "OwnableInvalidOwner",
      "type": "error"
    },
    {
      "inputs": [
        {
          "internalType": "address",
          "name": "account",
          "type": "address"
        }
      ],
      "name": "OwnableUnauthorizedAccount",
      "type": "error"
    },
    {
      "anonymous": false,
      "inputs": [
        {
          "indexed": true,
          "internalType": "address",
          "name": "owner",
          "type": "address"
        },
        {
          "indexed": true,
          "internalType": "address",
          "name": "approved",
          "type": "address"
        },
        {
          "indexed": true,
          "internalType": "uint256",
          "name": "tokenId",
          "type": "uint256"
        }
      ],
      "name": "Approval",
      "type": "event"
    },
    {
      "anonymous": false,
      "inputs": [
        {
          "indexed": true,
          "internalType": "address",
          "name": "owner",
          "type": "address"
        },
        {
          "indexed": true,
          "internalType": "address",
          "name": "operator",
          "type": "address"
        },
        {
          "indexed": false,
          "internalType": "bool",
          "name": "approved",
          "type": "bool"
        }
      ],
      "name": "ApprovalForAll",
      "type": "event"
    },
    {
      "anonymous": false,
      "inputs": [
        {
          "indexed": false,
          "internalType": "uint256",
          "name": "oldPrice",
          "type": "uint256"
        },
        {
          "indexed": false,
          "internalType": "uint256",
          "name": "newPrice",
          "type": "uint256"
        }
      ],
      "name": "BasePriceUpdated",
      "type": "event"
    },
    {
      "anonymous": false,
      "inputs": [
        {
          "indexed": false,
          "internalType": "uint256",
          "name": "_fromTokenId",
          "type": "uint256"
        },
        {
          "indexed": false,
          "internalType": "uint256",
          "name": "_toTokenId",
          "type": "uint256"
        }
      ],
      "name": "BatchMetadataUpdate",
      "type": "event"
    },
    {
      "anonymous": false,
      "inputs": [
        {
          "indexed": false,
          "internalType": "uint256",
          "name": "_tokenId",
          "type": "uint256"
        }
      ],
      "name": "MetadataUpdate",
      "type": "event"
    },
    {
      "anonymous": false,
      "inputs": [
        {
          "indexed": true,
          "internalType": "address",
          "name": "buyer",
          "type": "address"
        },
        {
          "indexed": true,
          "internalType": "uint256",
          "name": "tokenId",
          "type": "uint256"
        },
        {
          "indexed": false,
          "internalType": "uint256",
          "name": "price",
          "type": "uint256"
        }
      ],
      "name": "NFTMinted",
      "type": "event"
    },
    {
      "anonymous": false,
      "inputs": [
        {
          "indexed": true,
          "internalType": "address",
          "name": "previousOwner",
          "type": "address"
        },
        {
          "indexed": true,
          "internalType": "address",
          "name": "newOwner",
          "type": "address"
        }
      ],
      "name": "OwnershipTransferred",
      "type": "event"
    },
    {
      "anonymous": false,
      "inputs": [
        {
          "indexed": true,
          "internalType": "address",
          "name": "from",
          "type": "address"
        },
        {
          "indexed": true,
          "internalType": "address",
          "name": "to",
          "type": "address"
        },
        {
          "indexed": true,
          "internalType": "uint256",
          "name": "tokenId",
          "type": "uint256"
        }
      ],
      "name": "Transfer",
      "type": "event"
    },
    {
      "stateMutability": "payable",
      "type": "fallback"
    },
    {
      "inputs": [
        {
          "internalType": "uint256",
          "name": "",
          "type": "uint256"
        }
      ],
      "name": "_allTokenIds",
      "outputs": [
        {
          "internalType": "uint256",
          "name": "",
          "type": "uint256"
        }
      ],
      "stateMutability": "view",
      "type": "function"
    },
    {
      "inputs": [
        {
          "internalType": "address",
          "name": "to",
          "type": "address"
        },
        {
          "internalType": "uint256",
          "name": "tokenId",
          "type": "uint256"
        }
      ],
      "name": "approve",
      "outputs": [],
      "stateMutability": "nonpayable",
      "type": "function"
    },
    {
      "inputs": [
        {
          "internalType": "address",
          "name": "owner",
          "type": "address"
        }
      ],
      "name": "balanceOf",
      "outputs": [
        {
          "internalType": "uint256",
          "name": "",
          "type": "uint256"
        }
      ],
      "stateMutability": "view",
      "type": "function"
    },
    {
      "inputs": [],
      "name": "basePrice",
      "outputs": [
        {
          "internalType": "uint256",
          "name": "",
          "type": "uint256"
        }
      ],
      "stateMutability": "view",
      "type": "function"
    },
    {
      "inputs": [],
      "name": "getAllTokenIds",
      "outputs": [
        {
          "internalType": "uint256[]",
          "name": "",
          "type": "uint256[]"
        }
      ],
      "stateMutability": "view",
      "type": "function"
    },
    {
      "inputs": [],
      "name": "getAllTokensInfo",
      "outputs": [
        {
          "internalType": "uint256[]",
          "name": "tokenIds",
          "type": "uint256[]"
        },
        {
          "internalType": "string[]",
          "name": "uris",
          "type": "string[]"
        },
        {
          "internalType": "uint256[]",
          "name": "rarities",
          "type": "uint256[]"
        },
        {
          "internalType": "uint256[]",
          "name": "prices",
          "type": "uint256[]"
        },
        {
          "internalType": "bool[]",
          "name": "mintedStatuses",
          "type": "bool[]"
        }
      ],
      "stateMutability": "view",
      "type": "function"
    },
    {
      "inputs": [
        {
          "internalType": "uint256",
          "name": "tokenId",
          "type": "uint256"
        }
      ],
      "name": "getApproved",
      "outputs": [
        {
          "internalType": "address",
          "name": "",
          "type": "address"
        }
      ],
      "stateMutability": "view",
      "type": "function"
    },
    {
      "inputs": [],
      "name": "getAvailableTokens",
      "outputs": [
        {
          "internalType": "uint256[]",
          "name": "",
          "type": "uint256[]"
        }
      ],
      "stateMutability": "view",
      "type": "function"
    },
    {
      "inputs": [],
      "name": "getMintedTokens",
      "outputs": [
        {
          "internalType": "uint256[]",
          "name": "",
          "type": "uint256[]"
        }
      ],
      "stateMutability": "view",
      "type": "function"
    },
    {
      "inputs": [
        {
          "internalType": "uint256",
          "name": "rarity",
          "type": "uint256"
        }
      ],
      "name": "getPrice",
      "outputs": [
        {
          "internalType": "uint256",
          "name": "",
          "type": "uint256"
        }
      ],
      "stateMutability": "view",
      "type": "function"
    },
    {
      "inputs": [
        {
          "internalType": "uint256",
          "name": "tokenId",
          "type": "uint256"
        }
      ],
      "name": "getTokenData",
      "outputs": [
        {
          "internalType": "string",
          "name": "",
          "type": "string"
        },
        {
          "internalType": "uint256",
          "name": "tokenRarity",
          "type": "uint256"
        }
      ],
      "stateMutability": "view",
      "type": "function"
    },
    {
      "inputs": [
        {
          "internalType": "uint256",
          "name": "tokenId",
          "type": "uint256"
        }
      ],
      "name": "getTokenInfo",
      "outputs": [
        {
          "internalType": "string",
          "name": "uri",
          "type": "string"
        },
        {
          "internalType": "uint256",
          "name": "rarity",
          "type": "uint256"
        },
        {
          "internalType": "uint256",
          "name": "price",
          "type": "uint256"
        },
        {
          "internalType": "bool",
          "name": "isMinted",
          "type": "bool"
        }
      ],
      "stateMutability": "view",
      "type": "function"
    },
    {
      "inputs": [
        {
          "internalType": "address",
          "name": "owner",
          "type": "address"
        },
        {
          "internalType": "address",
          "name": "operator",
          "type": "address"
        }
      ],
      "name": "isApprovedForAll",
      "outputs": [
        {
          "internalType": "bool",
          "name": "",
          "type": "bool"
        }
      ],
      "stateMutability": "view",
      "type": "function"
    },
    {
      "inputs": [
        {
          "internalType": "uint256",
          "name": "tokenId",
          "type": "uint256"
        }
      ],
      "name": "isTokenMinted",
      "outputs": [
        {
          "internalType": "bool",
          "name": "",
          "type": "bool"
        }
      ],
      "stateMutability": "view",
      "type": "function"
    },
    {
      "inputs": [],
      "name": "maxSupply",
      "outputs": [
        {
          "internalType": "uint256",
          "name": "",
          "type": "uint256"
        }
      ],
      "stateMutability": "view",
      "type": "function"
    },
    {
      "inputs": [
        {
          "internalType": "uint256",
          "name": "tokenId",
          "type": "uint256"
        }
      ],
      "name": "mintNFT",
      "outputs": [
        {
          "internalType": "uint256",
          "name": "",
          "type": "uint256"
        }
      ],
      "stateMutability": "payable",
      "type": "function"
    },
    {
      "inputs": [
        {
          "internalType": "uint256",
          "name": "",
          "type": "uint256"
        }
      ],
      "name": "minted",
      "outputs": [
        {
          "internalType": "bool",
          "name": "",
          "type": "bool"
        }
      ],
      "stateMutability": "view",
      "type": "function"
    },
    {
      "inputs": [],
      "name": "name",
      "outputs": [
        {
          "internalType": "string",
          "name": "",
          "type": "string"
        }
      ],
      "stateMutability": "view",
      "type": "function"
    },
    {
      "inputs": [],
      "name": "owner",
      "outputs": [
        {
          "internalType": "address",
          "name": "",
          "type": "address"
        }
      ],
      "stateMutability": "view",
      "type": "function"
    },
    {
      "inputs": [
        {
          "internalType": "uint256",
          "name": "tokenId",
          "type": "uint256"
        }
      ],
      "name": "ownerOf",
      "outputs": [
        {
          "internalType": "address",
          "name": "",
          "type": "address"
        }
      ],
      "stateMutability": "view",
      "type": "function"
    },
    {
      "inputs": [
        {
          "internalType": "uint256",
          "name": "",
          "type": "uint256"
        }
      ],
      "name": "rarityMap",
      "outputs": [
        {
          "internalType": "uint256",
          "name": "",
          "type": "uint256"
        }
      ],
      "stateMutability": "view",
      "type": "function"
    },
    {
      "inputs": [],
      "name": "renounceOwnership",
      "outputs": [],
      "stateMutability": "nonpayable",
      "type": "function"
    },
    {
      "inputs": [
        {
          "internalType": "address",
          "name": "from",
          "type": "address"
        },
        {
          "internalType": "address",
          "name": "to",
          "type": "address"
        },
        {
          "internalType": "uint256",
          "name": "tokenId",
          "type": "uint256"
        }
      ],
      "name": "safeTransferFrom",
      "outputs": [],
      "stateMutability": "nonpayable",
      "type": "function"
    },
    {
      "inputs": [
        {
          "internalType": "address",
          "name": "from",
          "type": "address"
        },
        {
          "internalType": "address",
          "name": "to",
          "type": "address"
        },
        {
          "internalType": "uint256",
          "name": "tokenId",
          "type": "uint256"
        },
        {
          "internalType": "bytes",
          "name": "data",
          "type": "bytes"
        }
      ],
      "name": "safeTransferFrom",
      "outputs": [],
      "stateMutability": "nonpayable",
      "type": "function"
    },
    {
      "inputs": [
        {
          "internalType": "address",
          "name": "operator",
          "type": "address"
        },
        {
          "internalType": "bool",
          "name": "approved",
          "type": "bool"
        }
      ],
      "name": "setApprovalForAll",
      "outputs": [],
      "stateMutability": "nonpayable",
      "type": "function"
    },
    {
      "inputs": [
        {
          "internalType": "uint256",
          "name": "newBasePrice",
          "type": "uint256"
        }
      ],
      "name": "setBasePrice",
      "outputs": [],
      "stateMutability": "nonpayable",
      "type": "function"
    },
    {
      "inputs": [
        {
          "internalType": "bytes4",
          "name": "interfaceId",
          "type": "bytes4"
        }
      ],
      "name": "supportsInterface",
      "outputs": [
        {
          "internalType": "bool",
          "name": "",
          "type": "bool"
        }
      ],
      "stateMutability": "view",
      "type": "function"
    },
    {
      "inputs": [],
      "name": "symbol",
      "outputs": [
        {
          "internalType": "string",
          "name": "",
          "type": "string"
        }
      ],
      "stateMutability": "view",
      "type": "function"
    },
    {
      "inputs": [
        {
          "internalType": "uint256",
          "name": "tokenId",
          "type": "uint256"
        }
      ],
      "name": "tokenURI",
      "outputs": [
        {
          "internalType": "string",
          "name": "",
          "type": "string"
        }
      ],
      "stateMutability": "view",
      "type": "function"
    },
    {
      "inputs": [],
      "name": "totalSupply",
      "outputs": [
        {
          "internalType": "uint256",
          "name": "",
          "type": "uint256"
        }
      ],
      "stateMutability": "view",
      "type": "function"
    },
    {
      "inputs": [
        {
          "internalType": "address",
          "name": "from",
          "type": "address"
        },
        {
          "internalType": "address",
          "name": "to",
          "type": "address"
        },
        {
          "internalType": "uint256",
          "name": "tokenId",
          "type": "uint256"
        }
      ],
      "name": "transferFrom",
      "outputs": [],
      "stateMutability": "nonpayable",
      "type": "function"
    },
    {
      "inputs": [
        {
          "internalType": "address",
          "name": "newOwner",
          "type": "address"
        }
      ],
      "name": "transferOwnership",
      "outputs": [],
      "stateMutability": "nonpayable",
      "type": "function"
    },
    {
      "inputs": [],
      "name": "withdraw",
      "outputs": [],
      "stateMutability": "nonpayable",
      "type": "function"
    },
    {
      "stateMutability": "payable",
      "type": "receive"
    }
  ],
  "bytecode": "0x608060405234801561000f575f5ffd5b50604051612b1c380380612b1c83398101604081905261002e916104e2565b846040518060400160405280600b81526020016a151a195b585d1a58d3919560aa1b815250604051806040016040528060048152602001631513919560e21b815250815f908161007e919061061d565b50600161008b828261061d565b5050506001600160a01b0381166100bc57604051631e4fbdf760e01b81525f60048201526024015b60405180910390fd5b6100c58161010c565b50600884905582516100de90600b9060208601906102d9565b506100ea83838361015d565b6001600160a01b03851615610102576101028561026d565b50505050506106eb565b600780546001600160a01b038381166001600160a01b0319831681179093556040519116919082907f8be0079c531659141344cd1fd0a4f28419497f9722a3daafe3b4186f6b6457e0905f90a35050565b8051835114801561016f575080518251145b6101bb5760405162461bcd60e51b815260206004820152601a60248201527f417272617973206d7573742062652073616d65206c656e67746800000000000060448201526064016100b3565b5f5b8351811015610267578181815181106101d8576101d86106d7565b6020026020010151600d5f8684815181106101f5576101f56106d7565b602002602001015181526020019081526020015f2081905550828181518110610220576102206106d7565b6020026020010151600e5f86848151811061023d5761023d6106d7565b602002602001015181526020019081526020015f20908161025e919061061d565b506001016101bd565b50505050565b6102756102aa565b6001600160a01b03811661029e57604051631e4fbdf760e01b81525f60048201526024016100b3565b6102a78161010c565b50565b6007546001600160a01b031633146102d75760405163118cdaa760e01b81523360048201526024016100b3565b565b828054828255905f5260205f20908101928215610312579160200282015b828111156103125782518255916020019190600101906102f7565b5061031e929150610322565b5090565b5b8082111561031e575f8155600101610323565b634e487b7160e01b5f52604160045260245ffd5b604051601f8201601f191681016001600160401b038111828210171561037257610372610336565b604052919050565b5f6001600160401b0382111561039257610392610336565b5060051b60200190565b5f82601f8301126103ab575f5ffd5b81516103be6103b98261037a565b61034a565b8082825260208201915060208360051b8601019250858311156103df575f5ffd5b602085015b838110156103fc5780518352602092830192016103e4565b5095945050505050565b5f82601f830112610415575f5ffd5b81516104236103b98261037a565b8082825260208201915060208360051b860101925085831115610444575f5ffd5b602085015b838110156103fc5780516001600160401b03811115610466575f5ffd5b8601603f81018813610476575f5ffd5b60208101516001600160401b0381111561049257610492610336565b6104a5601f8201601f191660200161034a565b8181526040838301018a10156104b9575f5ffd5b8160408401602083015e5f60208383010152808652505050602083019250602081019050610449565b5f5f5f5f5f60a086880312156104f6575f5ffd5b85516001600160a01b038116811461050c575f5ffd5b6020870151604088015191965094506001600160401b0381111561052e575f5ffd5b61053a8882890161039c565b606088015190945090506001600160401b03811115610557575f5ffd5b61056388828901610406565b608088015190935090506001600160401b03811115610580575f5ffd5b61058c8882890161039c565b9150509295509295909350565b600181811c908216806105ad57607f821691505b6020821081036105cb57634e487b7160e01b5f52602260045260245ffd5b50919050565b601f82111561061857805f5260205f20601f840160051c810160208510156105f65750805b601f840160051c820191505b81811015610615575f8155600101610602565b50505b505050565b81516001600160401b0381111561063657610636610336565b61064a816106448454610599565b846105d1565b6020601f82116001811461067c575f83156106655750848201515b5f19600385901b1c1916600184901b178455610615565b5f84815260208120601f198516915b828110156106ab578785015182556020948501946001909201910161068b565b50848210156106c857868401515f19600387901b60f8161c191681555b50505050600190811b01905550565b634e487b7160e01b5f52603260045260245ffd5b612424806106f85f395ff3fe6080604052600436106101f1575f3560e01c8063926427441161010c578063c7876ea41161009f578063de4b32621161006e578063de4b326214610625578063e35568cb14610644578063e757223014610658578063e985e9c514610677578063f2fde38b1461069657610243565b8063c7876ea4146105c9578063c87b56dd146105de578063d5abeb01146105fd578063dc9652901461061157610243565b8063a22cb465116100db578063a22cb4651461053d578063b09afec11461055c578063b88d4fde14610589578063bdbed722146105a857610243565b806392642744146104d257806395d89b41146104e55780639a24a25b146104f95780639a707f901461051e57610243565b80635f41ddbe116101845780637dc0bf3f116101535780637dc0bf3f1461042a5780638c7a63ae146104585780638da5cb5b146104875780638f96a7cb146104a457610243565b80635f41ddbe146103ad5780636352211e146103d857806370a08231146103f7578063715018a61461041657610243565b806318160ddd116101c057806318160ddd1461033857806323b872dd1461035b5780633ccfd60b1461037a57806342842e0e1461038e57610243565b806301ffc9a71461028b57806306fdde03146102bf578063081812fc146102e0578063095ea7b31461031757610243565b366102435760405162461bcd60e51b815260206004820152601d60248201527f557365206d696e744e465428746f6b656e4964292066756e6374696f6e00000060448201526064015b60405180910390fd5b60405162461bcd60e51b815260206004820152601d60248201527f557365206d696e744e465428746f6b656e4964292066756e6374696f6e000000604482015260640161023a565b348015610296575f5ffd5b506102aa6102a5366004611db5565b6106b5565b60405190151581526020015b60405180910390f35b3480156102ca575f5ffd5b506102d36106df565b6040516102b69190611dfe565b3480156102eb575f5ffd5b506102ff6102fa366004611e10565b61076e565b6040516001600160a01b0390911681526020016102b6565b348015610322575f5ffd5b50610336610331366004611e42565b610795565b005b348015610343575f5ffd5b5061034d600a5481565b6040519081526020016102b6565b348015610366575f5ffd5b50610336610375366004611e6a565b6107a4565b348015610385575f5ffd5b5061033661082d565b348015610399575f5ffd5b506103366103a8366004611e6a565b6108b1565b3480156103b8575f5ffd5b5061034d6103c7366004611e10565b600d6020525f908152604090205481565b3480156103e3575f5ffd5b506102ff6103f2366004611e10565b6108d0565b348015610402575f5ffd5b5061034d610411366004611ea4565b6108da565b348015610421575f5ffd5b5061033661091f565b348015610435575f5ffd5b506102aa610444366004611e10565b600c6020525f908152604090205460ff1681565b348015610463575f5ffd5b50610477610472366004611e10565b610932565b6040516102b69493929190611ebd565b348015610492575f5ffd5b506007546001600160a01b03166102ff565b3480156104af575f5ffd5b506102aa6104be366004611e10565b5f908152600c602052604090205460ff1690565b61034d6104e0366004611e10565b610a0b565b3480156104f0575f5ffd5b506102d3610ccb565b348015610504575f5ffd5b5061050d610cda565b6040516102b6959493929190611f59565b348015610529575f5ffd5b5061034d610538366004611e10565b610ffd565b348015610548575f5ffd5b5061033661055736600461200b565b61101c565b348015610567575f5ffd5b5061057b610576366004611e10565b611027565b6040516102b6929190612044565b348015610594575f5ffd5b506103366105a3366004612079565b6110d9565b3480156105b3575f5ffd5b506105bc6110f1565b6040516102b69190612156565b3480156105d4575f5ffd5b5061034d60085481565b3480156105e9575f5ffd5b506102d36105f8366004611e10565b611146565b348015610608575f5ffd5b50600b5461034d565b34801561061c575f5ffd5b506105bc611251565b348015610630575f5ffd5b5061033661063f366004611e10565b611322565b34801561064f575f5ffd5b506105bc611370565b348015610663575f5ffd5b5061034d610672366004611e10565b61148f565b348015610682575f5ffd5b506102aa610691366004612168565b6114f2565b3480156106a1575f5ffd5b506103366106b0366004611ea4565b61151f565b5f6001600160e01b03198216632483248360e11b14806106d957506106d98261155c565b92915050565b60605f80546106ed90612199565b80601f016020809104026020016040519081016040528092919081815260200182805461071990612199565b80156107645780601f1061073b57610100808354040283529160200191610764565b820191905f5260205f20905b81548152906001019060200180831161074757829003601f168201915b5050505050905090565b5f610778826115ab565b505f828152600460205260409020546001600160a01b03166106d9565b6107a08282336115e3565b5050565b6001600160a01b0382166107cd57604051633250574960e11b81525f600482015260240161023a565b5f6107d98383336115f0565b9050836001600160a01b0316816001600160a01b031614610827576040516364283d7b60e01b81526001600160a01b038086166004830152602482018490528216604482015260640161023a565b50505050565b6108356116e2565b478061087a5760405162461bcd60e51b81526020600482015260146024820152734e6f2066756e647320746f20776974686472617760601b604482015260640161023a565b6007546040516001600160a01b039091169082156108fc029083905f818181858888f193505050501580156107a0573d5f5f3e3d5ffd5b6108cb83838360405180602001604052805f8152506110d9565b505050565b5f6106d9826115ab565b5f6001600160a01b038216610904576040516322718ad960e21b81525f600482015260240161023a565b506001600160a01b03165f9081526003602052604090205490565b6109276116e2565b6109305f61170f565b565b60605f5f5f600e5f8681526020019081526020015f20805461095390612199565b80601f016020809104026020016040519081016040528092919081815260200182805461097f90612199565b80156109ca5780601f106109a1576101008083540402835291602001916109ca565b820191905f5260205f20905b8154815290600101906020018083116109ad57829003601f168201915b50505050509350600d5f8681526020019081526020015f205492506109ee8361148f565b5f958652600c602052604090952054939592949360ff1692915050565b5f818152600c602052604081205460ff1615610a605760405162461bcd60e51b8152602060048201526014602482015273151bdad95b88185b1c9958591e481b5a5b9d195960621b604482015260640161023a565b5f828152600e602052604081208054610a7890612199565b905011610ac75760405162461bcd60e51b815260206004820152601760248201527f546f6b656e20494420646f6573206e6f74206578697374000000000000000000604482015260640161023a565b600b54600a5410610b1a5760405162461bcd60e51b815260206004820152601b60248201527f416c6c20746f6b656e732068617665206265656e206d696e7465640000000000604482015260640161023a565b5f828152600d602052604081205490610b328261148f565b905080341015610b7b5760405162461bcd60e51b8152602060048201526014602482015273125b9cdd59999a58da595b9d081c185e5b595b9d60621b604482015260640161023a565b610b853385611760565b5f848152600e602052604090208054610c24918691610ba390612199565b80601f0160208091040260200160405190810160405280929190818152602001828054610bcf90612199565b8015610c1a5780601f10610bf157610100808354040283529160200191610c1a565b820191905f5260205f20905b815481529060010190602001808311610bfd57829003601f168201915b5050505050611779565b5f848152600c60205260408120805460ff19166001179055600a805491610c4a836121e5565b919050555080341115610c8c57336108fc610c6583346121fd565b6040518115909202915f818181858888f19350505050158015610c8a573d5f5f3e3d5ffd5b505b604051818152849033907f3a8a89b59a31c39a36febecb987e0657ab7b7c73b60ebacb44dcb9886c2d5c8a9060200160405180910390a3509192915050565b6060600180546106ed90612199565b600b5460609081908190819081908067ffffffffffffffff811115610d0157610d01612065565b604051908082528060200260200182016040528015610d2a578160200160208202803683370190505b5095508067ffffffffffffffff811115610d4657610d46612065565b604051908082528060200260200182016040528015610d7957816020015b6060815260200190600190039081610d645790505b5094508067ffffffffffffffff811115610d9557610d95612065565b604051908082528060200260200182016040528015610dbe578160200160208202803683370190505b5093508067ffffffffffffffff811115610dda57610dda612065565b604051908082528060200260200182016040528015610e03578160200160208202803683370190505b5092508067ffffffffffffffff811115610e1f57610e1f612065565b604051908082528060200260200182016040528015610e48578160200160208202803683370190505b5091505f5b81811015610ff4575f600b8281548110610e6957610e69612210565b905f5260205f200154905080888381518110610e8757610e87612210565b602002602001018181525050600e5f8281526020019081526020015f208054610eaf90612199565b80601f0160208091040260200160405190810160405280929190818152602001828054610edb90612199565b8015610f265780601f10610efd57610100808354040283529160200191610f26565b820191905f5260205f20905b815481529060010190602001808311610f0957829003601f168201915b5050505050878381518110610f3d57610f3d612210565b6020026020010181905250600d5f8281526020019081526020015f2054868381518110610f6c57610f6c612210565b602002602001018181525050610f92600d5f8381526020019081526020015f205461148f565b858381518110610fa457610fa4612210565b6020908102919091018101919091525f828152600c9091526040902054845160ff90911690859084908110610fdb57610fdb612210565b9115156020928302919091019091015250600101610e4d565b50509091929394565b600b818154811061100c575f80fd5b5f91825260209091200154905081565b6107a03383836117c1565b5f818152600e60209081526040808320600d9092528220548154606093929190829061105290612199565b80601f016020809104026020016040519081016040528092919081815260200182805461107e90612199565b80156110c95780601f106110a0576101008083540402835291602001916110c9565b820191905f5260205f20905b8154815290600101906020018083116110ac57829003601f168201915b5050505050915091509150915091565b6110e48484846107a4565b610827338585858561185f565b6060600b80548060200260200160405190810160405280929190818152602001828054801561076457602002820191905f5260205f20905b815481526020019060010190808311611129575050505050905090565b6060611151826115ab565b505f828152600660205260408120805461116a90612199565b80601f016020809104026020016040519081016040528092919081815260200182805461119690612199565b80156111e15780601f106111b8576101008083540402835291602001916111e1565b820191905f5260205f20905b8154815290600101906020018083116111c457829003601f168201915b505050505090505f6111fd60408051602081019091525f815290565b905080515f0361120e575092915050565b81511561124057808260405160200161122892919061223b565b60405160208183030381529060405292505050919050565b61124984611987565b949350505050565b600a546060905f8167ffffffffffffffff81111561127157611271612065565b60405190808252806020026020018201604052801561129a578160200160208202803683370190505b5090505f805b600b54811015611319575f600b82815481106112be576112be612210565b5f918252602080832090910154808352600c90915260409091205490915060ff161561131057808484815181106112f7576112f7612210565b60209081029190910101528261130c816121e5565b9350505b506001016112a0565b50909392505050565b61132a6116e2565b600880549082905560408051828152602081018490527f25de84a545fa2e920c87ed61608c1a1e73712c6f83720133126e05145a028cc491015b60405180910390a15050565b60605f805b600b548110156113cd57600c5f600b838154811061139557611395612210565b5f918252602080832090910154835282019290925260400190205460ff166113c557816113c1816121e5565b9250505b600101611375565b505f8167ffffffffffffffff8111156113e8576113e8612065565b604051908082528060200260200182016040528015611411578160200160208202803683370190505b5090505f805b600b54811015611319575f600b828154811061143557611435612210565b5f918252602080832090910154808352600c90915260409091205490915060ff16611486578084848151811061146d5761146d612210565b602090810291909101015282611482816121e5565b9350505b50600101611417565b5f80600a61149f6103e88561224f565b6114a99190612266565b6114b5906103e8612285565b90505f6114c2828061224f565b90505f6114d16103e88061224f565b826008546114df919061224f565b6114e99190612266565b95945050505050565b6001600160a01b039182165f90815260056020908152604080832093909416825291909152205460ff1690565b6115276116e2565b6001600160a01b03811661155057604051631e4fbdf760e01b81525f600482015260240161023a565b6115598161170f565b50565b5f6001600160e01b031982166380ac58cd60e01b148061158c57506001600160e01b03198216635b5e139f60e01b145b806106d957506301ffc9a760e01b6001600160e01b03198316146106d9565b5f818152600260205260408120546001600160a01b0316806106d957604051637e27328960e01b81526004810184905260240161023a565b6108cb83838360016119f8565b5f828152600260205260408120546001600160a01b039081169083161561161c5761161c818486611afc565b6001600160a01b03811615611656576116375f855f5f6119f8565b6001600160a01b0381165f90815260036020526040902080545f190190555b6001600160a01b03851615611684576001600160a01b0385165f908152600360205260409020805460010190555b5f8481526002602052604080822080546001600160a01b0319166001600160a01b0389811691821790925591518793918516917fddf252ad1be2c89b69c2b068fc378daa952ba7f163c4a11628f55a4df523b3ef91a4949350505050565b6007546001600160a01b031633146109305760405163118cdaa760e01b815233600482015260240161023a565b600780546001600160a01b038381166001600160a01b0319831681179093556040519116919082907f8be0079c531659141344cd1fd0a4f28419497f9722a3daafe3b4186f6b6457e0905f90a35050565b6107a0828260405180602001604052805f815250611b60565b5f82815260066020526040902061179082826122dc565b506040518281527ff8e1a15aba9398e019f0b49df1a4fde98ee17ae345cb5f6b5e2c27f5033e8ce790602001611364565b6001600160a01b0382166117f357604051630b61174360e31b81526001600160a01b038316600482015260240161023a565b6001600160a01b038381165f81815260056020908152604080832094871680845294825291829020805460ff191686151590811790915591519182527f17307eab39ab6107e8899845ad3d59bd9653f200f220920489ca2b5937696c31910160405180910390a3505050565b6001600160a01b0383163b1561198057604051630a85bd0160e11b81526001600160a01b0384169063150b7a02906118a1908890889087908790600401612397565b6020604051808303815f875af19250505080156118db575060408051601f3d908101601f191682019092526118d8918101906123d3565b60015b611942573d808015611908576040519150601f19603f3d011682016040523d82523d5f602084013e61190d565b606091505b5080515f0361193a57604051633250574960e11b81526001600160a01b038516600482015260240161023a565b805160208201fd5b6001600160e01b03198116630a85bd0160e11b1461197e57604051633250574960e11b81526001600160a01b038516600482015260240161023a565b505b5050505050565b6060611992826115ab565b505f6119a860408051602081019091525f815290565b90505f8151116119c65760405180602001604052805f8152506119f1565b806119d084611b77565b6040516020016119e192919061223b565b6040516020818303038152906040525b9392505050565b8080611a0c57506001600160a01b03821615155b15611acd575f611a1b846115ab565b90506001600160a01b03831615801590611a475750826001600160a01b0316816001600160a01b031614155b8015611a5a5750611a5881846114f2565b155b15611a835760405163a9fbf51f60e01b81526001600160a01b038416600482015260240161023a565b8115611acb5783856001600160a01b0316826001600160a01b03167f8c5be1e5ebec7d5bd14f71427d1e84f3dd0314c0f7b2291e5b200ac8c7c3b92560405160405180910390a45b505b50505f90815260046020526040902080546001600160a01b0319166001600160a01b0392909216919091179055565b611b07838383611c07565b6108cb576001600160a01b038316611b3557604051637e27328960e01b81526004810182905260240161023a565b60405163177e802f60e01b81526001600160a01b03831660048201526024810182905260440161023a565b611b6a8383611c68565b6108cb335f85858561185f565b60605f611b8383611cc9565b60010190505f8167ffffffffffffffff811115611ba257611ba2612065565b6040519080825280601f01601f191660200182016040528015611bcc576020820181803683370190505b5090508181016020015b5f19016f181899199a1a9b1b9c1cb0b131b232b360811b600a86061a8153600a8504945084611bd657509392505050565b5f6001600160a01b038316158015906112495750826001600160a01b0316846001600160a01b03161480611c405750611c4084846114f2565b806112495750505f908152600460205260409020546001600160a01b03908116911614919050565b6001600160a01b038216611c9157604051633250574960e11b81525f600482015260240161023a565b5f611c9d83835f6115f0565b90506001600160a01b038116156108cb576040516339e3563760e11b81525f600482015260240161023a565b5f8072184f03e93ff9f4daa797ed6e38ed64bf6a1f0160401b8310611d075772184f03e93ff9f4daa797ed6e38ed64bf6a1f0160401b830492506040015b6d04ee2d6d415b85acef81000000008310611d33576d04ee2d6d415b85acef8100000000830492506020015b662386f26fc100008310611d5157662386f26fc10000830492506010015b6305f5e1008310611d69576305f5e100830492506008015b6127108310611d7d57612710830492506004015b60648310611d8f576064830492506002015b600a83106106d95760010192915050565b6001600160e01b031981168114611559575f5ffd5b5f60208284031215611dc5575f5ffd5b81356119f181611da0565b5f81518084528060208401602086015e5f602082860101526020601f19601f83011685010191505092915050565b602081525f6119f16020830184611dd0565b5f60208284031215611e20575f5ffd5b5035919050565b80356001600160a01b0381168114611e3d575f5ffd5b919050565b5f5f60408385031215611e53575f5ffd5b611e5c83611e27565b946020939093013593505050565b5f5f5f60608486031215611e7c575f5ffd5b611e8584611e27565b9250611e9360208501611e27565b929592945050506040919091013590565b5f60208284031215611eb4575f5ffd5b6119f182611e27565b608081525f611ecf6080830187611dd0565b60208301959095525060408101929092521515606090910152919050565b5f8151808452602084019350602083015f5b82811015611f1d578151865260209586019590910190600101611eff565b5093949350505050565b5f8151808452602084019350602083015f5b82811015611f1d5781511515865260209586019590910190600101611f39565b60a081525f611f6b60a0830188611eed565b828103602084015280875180835260208301915060208160051b84010160208a015f5b83811015611fc057601f19868403018552611faa838351611dd0565b6020958601959093509190910190600101611f8e565b50508581036040870152611fd4818a611eed565b93505050508281036060840152611feb8186611eed565b90508281036080840152611fff8185611f27565b98975050505050505050565b5f5f6040838503121561201c575f5ffd5b61202583611e27565b915060208301358015158114612039575f5ffd5b809150509250929050565b604081525f6120566040830185611dd0565b90508260208301529392505050565b634e487b7160e01b5f52604160045260245ffd5b5f5f5f5f6080858703121561208c575f5ffd5b61209585611e27565b93506120a360208601611e27565b925060408501359150606085013567ffffffffffffffff8111156120c5575f5ffd5b8501601f810187136120d5575f5ffd5b803567ffffffffffffffff8111156120ef576120ef612065565b604051601f8201601f19908116603f0116810167ffffffffffffffff8111828210171561211e5761211e612065565b604052818152828201602001891015612135575f5ffd5b816020840160208301375f6020838301015280935050505092959194509250565b602081525f6119f16020830184611eed565b5f5f60408385031215612179575f5ffd5b61218283611e27565b915061219060208401611e27565b90509250929050565b600181811c908216806121ad57607f821691505b6020821081036121cb57634e487b7160e01b5f52602260045260245ffd5b50919050565b634e487b7160e01b5f52601160045260245ffd5b5f600182016121f6576121f66121d1565b5060010190565b818103818111156106d9576106d96121d1565b634e487b7160e01b5f52603260045260245ffd5b5f81518060208401855e5f93019283525090919050565b5f6112496122498386612224565b84612224565b80820281158282048414176106d9576106d96121d1565b5f8261228057634e487b7160e01b5f52601260045260245ffd5b500490565b808201808211156106d9576106d96121d1565b601f8211156108cb57805f5260205f20601f840160051c810160208510156122bd5750805b601f840160051c820191505b81811015611980575f81556001016122c9565b815167ffffffffffffffff8111156122f6576122f6612065565b61230a816123048454612199565b84612298565b6020601f82116001811461233c575f83156123255750848201515b5f19600385901b1c1916600184901b178455611980565b5f84815260208120601f198516915b8281101561236b578785015182556020948501946001909201910161234b565b508482101561238857868401515f19600387901b60f8161c191681555b50505050600190811b01905550565b6001600160a01b03858116825284166020820152604081018390526080606082018190525f906123c990830184611dd0565b9695505050505050565b5f602082840312156123e3575f5ffd5b81516119f181611da056fea26469706673582212208ed4ffd519162502d16de79ee64427a19387baa4825bc7dd4f0fb50d5712a22d64736f6c634300081c0033",
  "linkReferences": {},
  "deployedLinkReferences": {},
  "immutableReferences": {},
  "inputSourceName": "project/contracts/ThematicNFT.sol",
  "buildInfoId": "solc-0_8_28-5706a7e45f5582ba9f845ac75a13e8c00cf21a08"
}